{
  "abi": [
    {
      "inputs": [
        {
          "internalType": "address",
          "name": "_pool",
          "type": "address"
        },
        {
          "internalType": "string",
          "name": "handle",
          "type": "string"
        }
      ],
      "stateMutability": "nonpayable",
      "type": "constructor"
    },
    {
      "inputs": [
        {
          "internalType": "string",
          "name": "word",
          "type": "string"
        }
      ],
      "name": "verifyAndPost",
      "outputs": [],
      "stateMutability": "nonpayable",
      "type": "function"
    }
  ],
  "bytecode": {
    "object": "0x608060405234801561001057600080fd5b5060405161080238038061080283398101604081905261002f9161022a565b600080546001600160a01b0319166001600160a01b0384161781556040805160c08101825230815260208082018590528251808201845284815282840152606082018490528251808201845284815260808301528251908101835292835260a08101929092525162fcbf2960e31b815273420f0257d43145bb002e69b14ff2eb9630fc4736919082906307e5f948906100cc908490600401610324565b600060405180830381600087803b1580156100e657600080fd5b505af11580156100fa573d6000803e3d6000fd5b50506000546040516308b5f10b60e31b81523060048201526001600160a01b0390911692506345af88589150602401600060405180830381600087803b15801561014357600080fd5b505af1158015610157573d6000803e3d6000fd5b5050604051632f745c5960e01b8152306004820152600060248201527360ae865ee4c725cd04353b5aab364553f56cef829250632f745c5991506044016020604051808303816000875af11580156101b3573d6000803e3d6000fd5b505050506040513d601f19601f820116820180604052508101906101d791906103c2565b600155506103db92505050565b634e487b7160e01b600052604160045260246000fd5b60005b838110156102155781810151838201526020016101fd565b83811115610224576000848401525b50505050565b6000806040838503121561023d57600080fd5b82516001600160a01b038116811461025457600080fd5b60208401519092506001600160401b038082111561027157600080fd5b818501915085601f83011261028557600080fd5b815181811115610297576102976101e4565b604051601f8201601f19908116603f011681019083821181831017156102bf576102bf6101e4565b816040528281528860208487010111156102d857600080fd5b6102e98360208301602088016101fa565b80955050505050509250929050565b600081518084526103108160208601602086016101fa565b601f01601f19169290920160200192915050565b60208152600060018060a01b03808451166020840152602084015160c0604085015261035360e08501826102f8565b90506040850151601f198086840301606087015261037183836102f8565b925083606088015116608087015260808701519350808684030160a087015261039a83856102f8565b935060a08701519250808685030160c087015250506103b982826102f8565b95945050505050565b6000602082840312156103d457600080fd5b5051919050565b610418806103ea6000396000f3fe608060405234801561001057600080fd5b506004361061002b5760003560e01c80630dea4c5114610030575b600080fd5b61004361003e36600461021f565b610045565b005b600054604051630a86da9d60e31b81526001600160a01b0390911690635436d4e89061007590849060040161031d565b600060405180830381600087803b15801561008f57600080fd5b505af11580156100a3573d6000803e3d6000fd5b5050505060006040518060c001604052806001548152602001838152602001730be6bd7092ee83d44a6ec1d949626fee48cab30c6001600160a01b0316815260200160006040516020016100fb911515815260200190565b60408051601f198184030181529181529082526000602083810182905282519081018352908152918101919091525163963ff14160e01b81529091507360ae865ee4c725cd04353b5aab364553f56cef8290819063963ff14190610163908590600401610337565b6020604051808303816000875af1158015610182573d6000803e3d6000fd5b505050506040513d601f19601f820116820180604052508101906101a691906103c9565b506000546040516395bbe4e760e01b81523360048201526001600160a01b03909116906395bbe4e790602401600060405180830381600087803b1580156101ec57600080fd5b505af1158015610200573d6000803e3d6000fd5b50505050505050565b634e487b7160e01b600052604160045260246000fd5b60006020828403121561023157600080fd5b813567ffffffffffffffff8082111561024957600080fd5b818401915084601f83011261025d57600080fd5b81358181111561026f5761026f610209565b604051601f8201601f19908116603f0116810190838211818310171561029757610297610209565b816040528281528760208487010111156102b057600080fd5b826020860160208301376000928101602001929092525095945050505050565b6000815180845260005b818110156102f6576020818501810151868301820152016102da565b81811115610308576000602083870101525b50601f01601f19169290920160200192915050565b60208152600061033060208301846102d0565b9392505050565b60208152815160208201526000602083015160c0604084015261035d60e08401826102d0565b60408501516001600160a01b03908116606086810191909152860151858303601f1990810160808801529293509161039584846102d0565b93508160808801511660a087015260a08701519250808685030160c087015250506103c082826102d0565b95945050505050565b6000602082840312156103db57600080fd5b505191905056fea264697066735822122046a238fb635e0e797d453d8294f92586ae79d606cbb8e96c58941dcdab8211ac64736f6c634300080f0033",
    "linkReferences": {}
  },
  "methodIdentifiers": {
    "verifyAndPost(string)": "0dea4c51"
  },
  "id": 9
}