{
  "abi": [
    {
      "inputs": [
        {
          "internalType": "address",
          "name": "_pool",
          "type": "address"
        }
      ],
      "stateMutability": "nonpayable",
      "type": "constructor"
    },
    {
      "inputs": [
        {
          "internalType": "string",
          "name": "word",
          "type": "string"
        }
      ],
      "name": "verifyAndPost",
      "outputs": [],
      "stateMutability": "nonpayable",
      "type": "function"
    }
  ],
  "bytecode": {
    "object": "0x608060405234801561001057600080fd5b5060405161028f38038061028f83398101604081905261002f91610054565b600080546001600160a01b0319166001600160a01b0392909216919091179055610084565b60006020828403121561006657600080fd5b81516001600160a01b038116811461007d57600080fd5b9392505050565b6101fc806100936000396000f3fe608060405234801561001057600080fd5b506004361061002b5760003560e01c80630dea4c5114610030575b600080fd5b61004361003e3660046100c0565b610045565b005b600054604051630a86da9d60e31b81526001600160a01b0390911690635436d4e890610075908490600401610171565b600060405180830381600087803b15801561008f57600080fd5b505af11580156100a3573d6000803e3d6000fd5b5050505050565b634e487b7160e01b600052604160045260246000fd5b6000602082840312156100d257600080fd5b813567ffffffffffffffff808211156100ea57600080fd5b818401915084601f8301126100fe57600080fd5b813581811115610110576101106100aa565b604051601f8201601f19908116603f01168101908382118183101715610138576101386100aa565b8160405282815287602084870101111561015157600080fd5b826020860160208301376000928101602001929092525095945050505050565b600060208083528351808285015260005b8181101561019e57858101830151858201604001528201610182565b818111156101b0576000604083870101525b50601f01601f191692909201604001939250505056fea26469706673582212204786895599e697e108d47a1687f887e26304d5d049f5100f13dded654324a0c664736f6c634300080f0033",
    "linkReferences": {}
  },
  "methodIdentifiers": {
    "verifyAndPost(string)": "0dea4c51"
  },
  "id": 2
}