{
  "abi": [
    {
      "inputs": [
        {
          "internalType": "bytes",
          "name": "proof",
          "type": "bytes"
        },
        {
          "internalType": "uint256[2]",
          "name": "input",
          "type": "uint256[2]"
        }
      ],
      "name": "verifyProof",
      "outputs": [
        {
          "internalType": "bool",
          "name": "",
          "type": "bool"
        }
      ],
      "stateMutability": "view",
      "type": "function"
    }
  ],
  "bytecode": {
    "object": "0x608060405234801561001057600080fd5b50610dfd806100206000396000f3fe608060405234801561001057600080fd5b506004361061002b5760003560e01c8063e1ff508214610030575b600080fd5b61004361003e366004610bec565b610057565b604051901515815260200160405180910390f35b6000808380602001905181019061006e9190610c93565b905060005b60088160ff161015610129577f30644e72e131a029b85045b68181585d97816a916871ca8d3c208c16d87cfd47828260ff16600881106100b5576100b5610d12565b6020020151106101175760405162461bcd60e51b815260206004820152602260248201527f76657269666965722d70726f6f662d656c656d656e742d6774652d7072696d656044820152612d7160f01b60648201526084015b60405180910390fd5b8061012181610d3e565b915050610073565b50600060405180604001604052808360006008811061014a5761014a610d12565b602002015181526020018360016008811061016757610167610d12565b60200201519052604080516080810182528482015191810191825291925060009190819060608201866003602002015181525081526020016040518060400160405280866004600881106101bd576101bd610d12565b60200201518152602001866005600881106101da576101da610d12565b6020020151905290526040805180820190915290915060009080856006602002015181526020018560076008811061021457610214610d12565b6020020151905290506000610227610368565b60808101515190915060005b6002811015610332577f30644e72e131a029b85045b68181585d2833e84879b9709143e1f593f000000189826002811061026f5761026f610d12565b6020020151106102cf5760405162461bcd60e51b815260206004820152602560248201527f76657269666965722d696e7075742d6774652d736e61726b2d7363616c61722d604482015264199a595b1960da1b606482015260840161010e565b61031e8261031985608001518460016102e89190610d5d565b600381106102f8576102f8610d12565b60200201518c856002811061030f5761030f610d12565b60200201516106e0565b610778565b91508061032a81610d75565b915050610233565b5061035b61033f8661081e565b85846000015185602001518587604001518989606001516108d8565b9998505050505050505050565b610370610a4a565b6040805180820182527f28ad0f969abfc0624532979c01f72fda61480876d90a2f1ec5df2481caf1551f81527f16dfdb1f7198834bfc2c18c7ffb10bdde66b1ee9630ed1a0b045bd2e1076779a6020808301919091529083528151608080820184527f26db6b2c5408b9fd3ec1fb75b22c3287f23859d3397dcea9e23ab50c538b94eb8285019081527f12f5a0acd088fc27acca6c7dcc29b6f888e73a0047a9bbf71783f52f21e53a36606080850191909152908352845180860186527f21b0521ea3f15de31d9fabf39b6fa297e4da934b33eee3bf3f3f89adba15774281527f21900def3c645d3fa56da15dc4d05c66c528eda064915a44417462506f9a5c81818601528385015285840192909252835180820185527f3024877a1f32a9d5fbb443f3a34d7db428972c33499d206e0adfde2cf995ff838186019081527f11e92ff6c7289377ed240b8f6c5d309cff99d1b16d2b3d234bc2531a493c3f6f828501528152845180860186527f0d6477b43ddb17046e4feda5f8730b48b33c441881cd25fe6547dd0f1d465b3281527f036f6873617bdcea6e935b0baf43ddcf46a551d0728bae967d5a78a0f0789942818601528185015285850152835180820185527eccf2e7cfa22a2241ee4d8d445b768473982eba76e513f9c3e06d28f835bce18186019081527f15dfb16de7268571f6399c824b6f85ef457a182035b6cd38823a751976787d1d828501528152845180860186527f052979d1ca429c3eb414fdd15c019c3a9710349f876e6f4dfce69e5cbfc8a9de81527f10725539d3a04c9ce070717fe56ef3c17dd242425615ccf663052394c561404b818601528185015291850191909152825180840184527f13d1b32a6785252315de60d95f914966a1ff891cc5e73645ab9115d0a26ecca681527f237a4e4118efc0947d02653a33bdd4fc2e52f2c620bdf4f83227503eedb132b981840152908401805191909152825180840184527f0b8c767383d81180cf0d46854a267c4bf2d26e94fc50870fb730aab07a62052881527f2fc27491c6b8d54fd059767d1b4d0aab5704253891f26c3397c6315f9cdaf740818401528151830152825180840184527f2287466b8892640a9eed0daf0f978bccf9f854aaf48063370d95c9dc24556f6081527f143300db1e8b4c32faa45f0fcea460a3e945f11a79f4891a1888a143d35194d692810192909252519091015290565b604080518082019091526000808252602082015260408051606080820183528551825260208087015190830152918101849052906000908360808460076107d05a03fa9050808061072d57fe5b50806107705760405162461bcd60e51b81526020600482015260126024820152711c185a5c9a5b99cb5b5d5b0b59985a5b195960721b604482015260640161010e565b505092915050565b60408051808201909152600080825260208201526000604051806080016040528085600001518152602001856020015181526020018460000151815260200184602001518152509050600060608360c08460066107d05a03fa905080806107db57fe5b50806107705760405162461bcd60e51b81526020600482015260126024820152711c185a5c9a5b99cb5859190b59985a5b195960721b604482015260640161010e565b6040805180820190915260008082526020820152815115801561084357506020820151155b15610861575050604080518082019091526000808252602082015290565b6040518060400160405280836000015181526020017f30644e72e131a029b85045b68181585d97816a916871ca8d3c208c16d87cfd4784602001516108a69190610d8e565b6108d0907f30644e72e131a029b85045b68181585d97816a916871ca8d3c208c16d87cfd47610db0565b905292915050565b6040805161030081018252895181526020808b015181830152895151928201929092528851820151606082015288820180515160808301525182015160a0820152875160c08201528782015160e08201528651516101008201528651820151610120820152868201805151610140830152518201516101608201528551610180820152858201516101a08201528451516101c082015284518201516101e08201528482018051516102008301525182015161022082015283516102408201528382015161026082015282515161028082015282518201516102a08201528282018051516102c083015251909101516102e08201526000906109d7610aa0565b60006020826103008560086107d05a03fa905080806109f257fe5b5080610a385760405162461bcd60e51b81526020600482015260156024820152741c185a5c9a5b99cb5bdc18dbd9194b59985a5b1959605a1b604482015260640161010e565b505115159a9950505050505050505050565b6040805160e08101909152600060a0820181815260c0830191909152815260208101610a74610abe565b8152602001610a81610abe565b8152602001610a8e610abe565b8152602001610a9b610ade565b905290565b60405180602001604052806001906020820280368337509192915050565b6040518060400160405280610ad1610b17565b8152602001610a9b610b17565b60405180606001604052806003905b6040805180820190915260008082526020820152815260200190600190039081610aed5790505090565b60405180604001604052806002906020820280368337509192915050565b634e487b7160e01b600052604160045260246000fd5b604051601f8201601f1916810167ffffffffffffffff81118282101715610b7457610b74610b35565b604052919050565b600082601f830112610b8d57600080fd5b6040516040810181811067ffffffffffffffff82111715610bb057610bb0610b35565b8060405250806040840185811115610bc757600080fd5b845b81811015610be1578035835260209283019201610bc9565b509195945050505050565b60008060608385031215610bff57600080fd5b823567ffffffffffffffff80821115610c1757600080fd5b818501915085601f830112610c2b57600080fd5b8135602082821115610c3f57610c3f610b35565b610c51601f8301601f19168201610b4b565b92508183528781838601011115610c6757600080fd5b81818501828501376000818385010152829550610c8688828901610b7c565b9450505050509250929050565b6000610100808385031215610ca757600080fd5b83601f840112610cb657600080fd5b60405181810181811067ffffffffffffffff82111715610cd857610cd8610b35565b604052908301908085831115610ced57600080fd5b845b83811015610d07578051825260209182019101610cef565b509095945050505050565b634e487b7160e01b600052603260045260246000fd5b634e487b7160e01b600052601160045260246000fd5b600060ff821660ff8103610d5457610d54610d28565b60010192915050565b60008219821115610d7057610d70610d28565b500190565b600060018201610d8757610d87610d28565b5060010190565b600082610dab57634e487b7160e01b600052601260045260246000fd5b500690565b600082821015610dc257610dc2610d28565b50039056fea2646970667358221220a01186c1a25386f9ac894a8e4aaddec62f8fa647d8aeba43c67afa24066e708864736f6c634300080f0033",
    "linkReferences": {}
  },
  "methodIdentifiers": {
    "verifyProof(bytes,uint256[2])": "e1ff5082"
  },
  "id": 11
}