{
  "abi": [
    {
      "inputs": [
        {
          "internalType": "uint256",
          "name": "_depostiAmount",
          "type": "uint256"
        }
      ],
      "stateMutability": "nonpayable",
      "type": "constructor"
    },
    {
      "anonymous": false,
      "inputs": [
        {
          "indexed": true,
          "internalType": "address",
          "name": "previousOwner",
          "type": "address"
        },
        {
          "indexed": true,
          "internalType": "address",
          "name": "newOwner",
          "type": "address"
        }
      ],
      "name": "OwnershipTransferred",
      "type": "event"
    },
    {
      "inputs": [
        {
          "internalType": "bytes32",
          "name": "hash",
          "type": "bytes32"
        }
      ],
      "name": "deposit",
      "outputs": [],
      "stateMutability": "payable",
      "type": "function"
    },
    {
      "inputs": [],
      "name": "owner",
      "outputs": [
        {
          "internalType": "address",
          "name": "",
          "type": "address"
        }
      ],
      "stateMutability": "view",
      "type": "function"
    },
    {
      "inputs": [],
      "name": "renounceOwnership",
      "outputs": [],
      "stateMutability": "nonpayable",
      "type": "function"
    },
    {
      "inputs": [
        {
          "internalType": "address",
          "name": "relayer",
          "type": "address"
        }
      ],
      "name": "rewardRelayer",
      "outputs": [],
      "stateMutability": "nonpayable",
      "type": "function"
    },
    {
      "inputs": [
        {
          "internalType": "address",
          "name": "_lensInteractor",
          "type": "address"
        }
      ],
      "name": "setLensInteractor",
      "outputs": [],
      "stateMutability": "nonpayable",
      "type": "function"
    },
    {
      "inputs": [
        {
          "internalType": "address",
          "name": "newOwner",
          "type": "address"
        }
      ],
      "name": "transferOwnership",
      "outputs": [],
      "stateMutability": "nonpayable",
      "type": "function"
    },
    {
      "inputs": [
        {
          "internalType": "string",
          "name": "word",
          "type": "string"
        }
      ],
      "name": "verifyAndRemoveWord",
      "outputs": [],
      "stateMutability": "nonpayable",
      "type": "function"
    }
  ],
  "bytecode": {
    "object": "0x60a060405234801561001057600080fd5b506040516107e93803806107e983398101604081905261002f91610090565b61003833610040565b6080526100a9565b600080546001600160a01b038381166001600160a01b0319831681178455604051919092169283917f8be0079c531659141344cd1fd0a4f28419497f9722a3daafe3b4186f6b6457e09190a35050565b6000602082840312156100a257600080fd5b5051919050565b60805161071e6100cb600039600081816102ed01526103a1015261071e6000f3fe6080604052600436106100705760003560e01c80638da5cb5b1161004e5780638da5cb5b146100cc57806395bbe4e7146100f8578063b214faa514610118578063f2fde38b1461012b57600080fd5b806345af8858146100755780635436d4e814610097578063715018a6146100b7575b600080fd5b34801561008157600080fd5b5061009561009036600461059d565b61014b565b005b3480156100a357600080fd5b506100956100b23660046105e3565b610198565b3480156100c357600080fd5b50610095610280565b3480156100d857600080fd5b50600054604080516001600160a01b039092168252519081900360200190f35b34801561010457600080fd5b5061009561011336600461059d565b610294565b610095610126366004610694565b61039f565b34801561013757600080fd5b5061009561014636600461059d565b61047a565b6000546001600160a01b031633148061016d57506002546001600160a01b0316155b61017657600080fd5b600280546001600160a01b0319166001600160a01b0392909216919091179055565b6002546001600160a01b031633146101e75760405162461bcd60e51b815260206004820152600d60248201526c2737903832b936b4b9b9b4b7b760991b60448201526064015b60405180910390fd5b6000816040516020016101fa91906106ad565b60408051601f1981840301815291815281516020928301206000818152600190935291205490915060ff166102675760405162461bcd60e51b815260206004820152601360248201527215dbdc99081a185cda081b9bdd08199bdd5b99606a1b60448201526064016101de565b6000908152600160205260409020805460ff1916905550565b6102886104f3565b610292600061054d565b565b6002546001600160a01b031633146102de5760405162461bcd60e51b815260206004820152600d60248201526c2737903832b936b4b9b9b4b7b760991b60448201526064016101de565b600080826001600160a01b03167f000000000000000000000000000000000000000000000000000000000000000060405160006040518083038185875af1925050503d806000811461034c576040519150601f19603f3d011682016040523d82523d6000602084013e610351565b606091505b50915091508161039a5760405162461bcd60e51b81526020600482015260146024820152732330b4b632b2103a379039b2b7321022ba3432b960611b60448201526064016101de565b505050565b7f000000000000000000000000000000000000000000000000000000000000000034146104055760405162461bcd60e51b815260206004820152601460248201527315dc9bdb99c819195c1bdcda5d08185b5bdd5b9d60621b60448201526064016101de565b60008181526001602052604090205460ff161561045c5760405162461bcd60e51b815260206004820152601560248201527412185cda08185b1c9958591e481a5b98db1d591959605a1b60448201526064016101de565b6000908152600160208190526040909120805460ff19169091179055565b6104826104f3565b6001600160a01b0381166104e75760405162461bcd60e51b815260206004820152602660248201527f4f776e61626c653a206e6577206f776e657220697320746865207a65726f206160448201526564647265737360d01b60648201526084016101de565b6104f08161054d565b50565b6000546001600160a01b031633146102925760405162461bcd60e51b815260206004820181905260248201527f4f776e61626c653a2063616c6c6572206973206e6f7420746865206f776e657260448201526064016101de565b600080546001600160a01b038381166001600160a01b0319831681178455604051919092169283917f8be0079c531659141344cd1fd0a4f28419497f9722a3daafe3b4186f6b6457e09190a35050565b6000602082840312156105af57600080fd5b81356001600160a01b03811681146105c657600080fd5b9392505050565b634e487b7160e01b600052604160045260246000fd5b6000602082840312156105f557600080fd5b813567ffffffffffffffff8082111561060d57600080fd5b818401915084601f83011261062157600080fd5b813581811115610633576106336105cd565b604051601f8201601f19908116603f0116810190838211818310171561065b5761065b6105cd565b8160405282815287602084870101111561067457600080fd5b826020860160208301376000928101602001929092525095945050505050565b6000602082840312156106a657600080fd5b5035919050565b6000825160005b818110156106ce57602081860181015185830152016106b4565b818111156106dd576000828501525b50919091019291505056fea26469706673582212205f4a3c1d97f29142d92d7d482ddee030803475bf3346d62ca62b1db244dd8d6a64736f6c634300080f0033",
    "linkReferences": {}
  },
  "methodIdentifiers": {
    "deposit(bytes32)": "b214faa5",
    "owner()": "8da5cb5b",
    "renounceOwnership()": "715018a6",
    "rewardRelayer(address)": "95bbe4e7",
    "setLensInteractor(address)": "45af8858",
    "transferOwnership(address)": "f2fde38b",
    "verifyAndRemoveWord(string)": "5436d4e8"
  },
  "id": 3
}