{
  "abi": [
    {
      "inputs": [
        {
          "internalType": "uint256",
          "name": "_depostiAmount",
          "type": "uint256"
        }
      ],
      "stateMutability": "nonpayable",
      "type": "constructor"
    },
    {
      "anonymous": false,
      "inputs": [
        {
          "indexed": true,
          "internalType": "address",
          "name": "previousOwner",
          "type": "address"
        },
        {
          "indexed": true,
          "internalType": "address",
          "name": "newOwner",
          "type": "address"
        }
      ],
      "name": "OwnershipTransferred",
      "type": "event"
    },
    {
      "inputs": [
        {
          "internalType": "bytes32",
          "name": "hash",
          "type": "bytes32"
        }
      ],
      "name": "deposit",
      "outputs": [],
      "stateMutability": "payable",
      "type": "function"
    },
    {
      "inputs": [],
      "name": "owner",
      "outputs": [
        {
          "internalType": "address",
          "name": "",
          "type": "address"
        }
      ],
      "stateMutability": "view",
      "type": "function"
    },
    {
      "inputs": [],
      "name": "renounceOwnership",
      "outputs": [],
      "stateMutability": "nonpayable",
      "type": "function"
    },
    {
      "inputs": [
        {
          "internalType": "address",
          "name": "relayer",
          "type": "address"
        }
      ],
      "name": "rewardRelayer",
      "outputs": [],
      "stateMutability": "nonpayable",
      "type": "function"
    },
    {
      "inputs": [
        {
          "internalType": "address",
          "name": "_lensInteractor",
          "type": "address"
        }
      ],
      "name": "setLensInteractor",
      "outputs": [],
      "stateMutability": "nonpayable",
      "type": "function"
    },
    {
      "inputs": [
        {
          "internalType": "address",
          "name": "newOwner",
          "type": "address"
        }
      ],
      "name": "transferOwnership",
      "outputs": [],
      "stateMutability": "nonpayable",
      "type": "function"
    },
    {
      "inputs": [
        {
          "internalType": "string",
          "name": "word",
          "type": "string"
        }
      ],
      "name": "verifyAndRemoveWord",
      "outputs": [],
      "stateMutability": "nonpayable",
      "type": "function"
    }
  ],
  "bytecode": {
    "object": "0x60a060405234801561001057600080fd5b506040516107c63803806107c683398101604081905261002f91610090565b61003833610040565b6080526100a9565b600080546001600160a01b038381166001600160a01b0319831681178455604051919092169283917f8be0079c531659141344cd1fd0a4f28419497f9722a3daafe3b4186f6b6457e09190a35050565b6000602082840312156100a257600080fd5b5051919050565b6080516106fb6100cb600039600081816102ca015261037e01526106fb6000f3fe6080604052600436106100705760003560e01c80638da5cb5b1161004e5780638da5cb5b146100cc57806395bbe4e7146100f8578063b214faa514610118578063f2fde38b1461012b57600080fd5b806345af8858146100755780635436d4e814610097578063715018a6146100b7575b600080fd5b34801561008157600080fd5b5061009561009036600461057a565b61014b565b005b3480156100a357600080fd5b506100956100b23660046105c0565b610175565b3480156100c357600080fd5b5061009561025d565b3480156100d857600080fd5b50600054604080516001600160a01b039092168252519081900360200190f35b34801561010457600080fd5b5061009561011336600461057a565b610271565b610095610126366004610671565b61037c565b34801561013757600080fd5b5061009561014636600461057a565b610457565b6101536104d0565b600280546001600160a01b0319166001600160a01b0392909216919091179055565b6002546001600160a01b031633146101c45760405162461bcd60e51b815260206004820152600d60248201526c2737903832b936b4b9b9b4b7b760991b60448201526064015b60405180910390fd5b6000816040516020016101d7919061068a565b60408051601f1981840301815291815281516020928301206000818152600190935291205490915060ff166102445760405162461bcd60e51b815260206004820152601360248201527215dbdc99081a185cda081b9bdd08199bdd5b99606a1b60448201526064016101bb565b6000908152600160205260409020805460ff1916905550565b6102656104d0565b61026f600061052a565b565b6002546001600160a01b031633146102bb5760405162461bcd60e51b815260206004820152600d60248201526c2737903832b936b4b9b9b4b7b760991b60448201526064016101bb565b600080826001600160a01b03167f000000000000000000000000000000000000000000000000000000000000000060405160006040518083038185875af1925050503d8060008114610329576040519150601f19603f3d011682016040523d82523d6000602084013e61032e565b606091505b5091509150816103775760405162461bcd60e51b81526020600482015260146024820152732330b4b632b2103a379039b2b7321022ba3432b960611b60448201526064016101bb565b505050565b7f000000000000000000000000000000000000000000000000000000000000000034146103e25760405162461bcd60e51b815260206004820152601460248201527315dc9bdb99c819195c1bdcda5d08185b5bdd5b9d60621b60448201526064016101bb565b60008181526001602052604090205460ff16156104395760405162461bcd60e51b815260206004820152601560248201527412185cda08185b1c9958591e481a5b98db1d591959605a1b60448201526064016101bb565b6000908152600160208190526040909120805460ff19169091179055565b61045f6104d0565b6001600160a01b0381166104c45760405162461bcd60e51b815260206004820152602660248201527f4f776e61626c653a206e6577206f776e657220697320746865207a65726f206160448201526564647265737360d01b60648201526084016101bb565b6104cd8161052a565b50565b6000546001600160a01b0316331461026f5760405162461bcd60e51b815260206004820181905260248201527f4f776e61626c653a2063616c6c6572206973206e6f7420746865206f776e657260448201526064016101bb565b600080546001600160a01b038381166001600160a01b0319831681178455604051919092169283917f8be0079c531659141344cd1fd0a4f28419497f9722a3daafe3b4186f6b6457e09190a35050565b60006020828403121561058c57600080fd5b81356001600160a01b03811681146105a357600080fd5b9392505050565b634e487b7160e01b600052604160045260246000fd5b6000602082840312156105d257600080fd5b813567ffffffffffffffff808211156105ea57600080fd5b818401915084601f8301126105fe57600080fd5b813581811115610610576106106105aa565b604051601f8201601f19908116603f01168101908382118183101715610638576106386105aa565b8160405282815287602084870101111561065157600080fd5b826020860160208301376000928101602001929092525095945050505050565b60006020828403121561068357600080fd5b5035919050565b6000825160005b818110156106ab5760208186018101518583015201610691565b818111156106ba576000828501525b50919091019291505056fea2646970667358221220c8c299cd8ca04d71643ccf1d6d40d8de8cad6fa105cddc1f8c0a9591c4c57aa464736f6c634300080f0033",
    "linkReferences": {}
  },
  "methodIdentifiers": {
    "deposit(bytes32)": "b214faa5",
    "owner()": "8da5cb5b",
    "renounceOwnership()": "715018a6",
    "rewardRelayer(address)": "95bbe4e7",
    "setLensInteractor(address)": "45af8858",
    "transferOwnership(address)": "f2fde38b",
    "verifyAndRemoveWord(string)": "5436d4e8"
  },
  "id": 3
}