{
  "abi": [
    {
      "inputs": [
        {
          "internalType": "uint256",
          "name": "_depostiAmount",
          "type": "uint256"
        }
      ],
      "stateMutability": "nonpayable",
      "type": "constructor"
    },
    {
      "anonymous": false,
      "inputs": [
        {
          "indexed": true,
          "internalType": "address",
          "name": "previousOwner",
          "type": "address"
        },
        {
          "indexed": true,
          "internalType": "address",
          "name": "newOwner",
          "type": "address"
        }
      ],
      "name": "OwnershipTransferred",
      "type": "event"
    },
    {
      "inputs": [
        {
          "internalType": "bytes32",
          "name": "hash",
          "type": "bytes32"
        }
      ],
      "name": "deposit",
      "outputs": [],
      "stateMutability": "payable",
      "type": "function"
    },
    {
      "inputs": [],
      "name": "owner",
      "outputs": [
        {
          "internalType": "address",
          "name": "",
          "type": "address"
        }
      ],
      "stateMutability": "view",
      "type": "function"
    },
    {
      "inputs": [],
      "name": "renounceOwnership",
      "outputs": [],
      "stateMutability": "nonpayable",
      "type": "function"
    },
    {
      "inputs": [
        {
          "internalType": "address",
          "name": "_lensInteractor",
          "type": "address"
        }
      ],
      "name": "setLensInteractor",
      "outputs": [],
      "stateMutability": "nonpayable",
      "type": "function"
    },
    {
      "inputs": [
        {
          "internalType": "address",
          "name": "newOwner",
          "type": "address"
        }
      ],
      "name": "transferOwnership",
      "outputs": [],
      "stateMutability": "nonpayable",
      "type": "function"
    },
    {
      "inputs": [
        {
          "internalType": "string",
          "name": "word",
          "type": "string"
        }
      ],
      "name": "verifyAndRemoveWord",
      "outputs": [],
      "stateMutability": "nonpayable",
      "type": "function"
    }
  ],
  "bytecode": {
    "object": "0x60a060405234801561001057600080fd5b5060405161067938038061067983398101604081905261002f91610090565b61003833610040565b6080526100a9565b600080546001600160a01b038381166001600160a01b0319831681178455604051919092169283917f8be0079c531659141344cd1fd0a4f28419497f9722a3daafe3b4186f6b6457e09190a35050565b6000602082840312156100a257600080fd5b5051919050565b6080516105b56100c4600039600061023801526105b56000f3fe6080604052600436106100555760003560e01c806345af88581461005a5780635436d4e81461007c578063715018a61461009c5780638da5cb5b146100b1578063b214faa5146100dd578063f2fde38b146100f0575b600080fd5b34801561006657600080fd5b5061007a610075366004610434565b610110565b005b34801561008857600080fd5b5061007a61009736600461047a565b61013a565b3480156100a857600080fd5b5061007a610222565b3480156100bd57600080fd5b50600054604080516001600160a01b039092168252519081900360200190f35b61007a6100eb36600461052b565b610236565b3480156100fc57600080fd5b5061007a61010b366004610434565b610311565b61011861038a565b600280546001600160a01b0319166001600160a01b0392909216919091179055565b6002546001600160a01b031633146101895760405162461bcd60e51b815260206004820152600d60248201526c2737903832b936b4b9b9b4b7b760991b60448201526064015b60405180910390fd5b60008160405160200161019c9190610544565b60408051601f1981840301815291815281516020928301206000818152600190935291205490915060ff166102095760405162461bcd60e51b815260206004820152601360248201527215dbdc99081a185cda081b9bdd08199bdd5b99606a1b6044820152606401610180565b6000908152600160205260409020805460ff1916905550565b61022a61038a565b61023460006103e4565b565b7f0000000000000000000000000000000000000000000000000000000000000000341461029c5760405162461bcd60e51b815260206004820152601460248201527315dc9bdb99c819195c1bdcda5d08185b5bdd5b9d60621b6044820152606401610180565b60008181526001602052604090205460ff16156102f35760405162461bcd60e51b815260206004820152601560248201527412185cda08185b1c9958591e481a5b98db1d591959605a1b6044820152606401610180565b6000908152600160208190526040909120805460ff19169091179055565b61031961038a565b6001600160a01b03811661037e5760405162461bcd60e51b815260206004820152602660248201527f4f776e61626c653a206e6577206f776e657220697320746865207a65726f206160448201526564647265737360d01b6064820152608401610180565b610387816103e4565b50565b6000546001600160a01b031633146102345760405162461bcd60e51b815260206004820181905260248201527f4f776e61626c653a2063616c6c6572206973206e6f7420746865206f776e65726044820152606401610180565b600080546001600160a01b038381166001600160a01b0319831681178455604051919092169283917f8be0079c531659141344cd1fd0a4f28419497f9722a3daafe3b4186f6b6457e09190a35050565b60006020828403121561044657600080fd5b81356001600160a01b038116811461045d57600080fd5b9392505050565b634e487b7160e01b600052604160045260246000fd5b60006020828403121561048c57600080fd5b813567ffffffffffffffff808211156104a457600080fd5b818401915084601f8301126104b857600080fd5b8135818111156104ca576104ca610464565b604051601f8201601f19908116603f011681019083821181831017156104f2576104f2610464565b8160405282815287602084870101111561050b57600080fd5b826020860160208301376000928101602001929092525095945050505050565b60006020828403121561053d57600080fd5b5035919050565b6000825160005b81811015610565576020818601810151858301520161054b565b81811115610574576000828501525b50919091019291505056fea2646970667358221220308d493302cad7c85c2f9c090980a6747798ce6df6aedfdbd4d373d39c5483c464736f6c634300080f0033",
    "linkReferences": {}
  },
  "methodIdentifiers": {
    "deposit(bytes32)": "b214faa5",
    "owner()": "8da5cb5b",
    "renounceOwnership()": "715018a6",
    "setLensInteractor(address)": "45af8858",
    "transferOwnership(address)": "f2fde38b",
    "verifyAndRemoveWord(string)": "5436d4e8"
  },
  "id": 3
}