{
  "abi": [
    {
      "inputs": [
        {
          "internalType": "uint256",
          "name": "_depostiAmount",
          "type": "uint256"
        }
      ],
      "stateMutability": "nonpayable",
      "type": "constructor"
    },
    {
      "inputs": [],
      "name": "FIELD_SIZE",
      "outputs": [
        {
          "internalType": "uint256",
          "name": "",
          "type": "uint256"
        }
      ],
      "stateMutability": "view",
      "type": "function"
    },
    {
      "inputs": [],
      "name": "ROOT_HISTORY_SIZE",
      "outputs": [
        {
          "internalType": "uint32",
          "name": "",
          "type": "uint32"
        }
      ],
      "stateMutability": "view",
      "type": "function"
    },
    {
      "inputs": [],
      "name": "ZERO_VALUE",
      "outputs": [
        {
          "internalType": "uint256",
          "name": "",
          "type": "uint256"
        }
      ],
      "stateMutability": "view",
      "type": "function"
    },
    {
      "inputs": [],
      "name": "currentRootIndex",
      "outputs": [
        {
          "internalType": "uint32",
          "name": "",
          "type": "uint32"
        }
      ],
      "stateMutability": "view",
      "type": "function"
    },
    {
      "inputs": [
        {
          "internalType": "bytes32",
          "name": "hash",
          "type": "bytes32"
        }
      ],
      "name": "deposit",
      "outputs": [],
      "stateMutability": "payable",
      "type": "function"
    },
    {
      "inputs": [
        {
          "internalType": "uint256",
          "name": "",
          "type": "uint256"
        }
      ],
      "name": "filledSubtrees",
      "outputs": [
        {
          "internalType": "bytes32",
          "name": "",
          "type": "bytes32"
        }
      ],
      "stateMutability": "view",
      "type": "function"
    },
    {
      "inputs": [],
      "name": "getLastRoot",
      "outputs": [
        {
          "internalType": "bytes32",
          "name": "",
          "type": "bytes32"
        }
      ],
      "stateMutability": "view",
      "type": "function"
    },
    {
      "inputs": [
        {
          "internalType": "contract IHasher",
          "name": "_hasher",
          "type": "address"
        },
        {
          "internalType": "bytes32",
          "name": "_left",
          "type": "bytes32"
        },
        {
          "internalType": "bytes32",
          "name": "_right",
          "type": "bytes32"
        }
      ],
      "name": "hashLeftRight",
      "outputs": [
        {
          "internalType": "bytes32",
          "name": "",
          "type": "bytes32"
        }
      ],
      "stateMutability": "pure",
      "type": "function"
    },
    {
      "inputs": [],
      "name": "hasher",
      "outputs": [
        {
          "internalType": "contract IHasher",
          "name": "",
          "type": "address"
        }
      ],
      "stateMutability": "view",
      "type": "function"
    },
    {
      "inputs": [
        {
          "internalType": "bytes32",
          "name": "_root",
          "type": "bytes32"
        }
      ],
      "name": "isKnownRoot",
      "outputs": [
        {
          "internalType": "bool",
          "name": "",
          "type": "bool"
        }
      ],
      "stateMutability": "view",
      "type": "function"
    },
    {
      "inputs": [],
      "name": "levels",
      "outputs": [
        {
          "internalType": "uint32",
          "name": "",
          "type": "uint32"
        }
      ],
      "stateMutability": "view",
      "type": "function"
    },
    {
      "inputs": [],
      "name": "nextIndex",
      "outputs": [
        {
          "internalType": "uint32",
          "name": "",
          "type": "uint32"
        }
      ],
      "stateMutability": "view",
      "type": "function"
    },
    {
      "inputs": [
        {
          "internalType": "address",
          "name": "relayer",
          "type": "address"
        }
      ],
      "name": "rewardRelayer",
      "outputs": [],
      "stateMutability": "nonpayable",
      "type": "function"
    },
    {
      "inputs": [
        {
          "internalType": "uint256",
          "name": "",
          "type": "uint256"
        }
      ],
      "name": "roots",
      "outputs": [
        {
          "internalType": "bytes32",
          "name": "",
          "type": "bytes32"
        }
      ],
      "stateMutability": "view",
      "type": "function"
    },
    {
      "inputs": [
        {
          "internalType": "address",
          "name": "_lensInteractor",
          "type": "address"
        }
      ],
      "name": "setLensInteractor",
      "outputs": [],
      "stateMutability": "nonpayable",
      "type": "function"
    },
    {
      "inputs": [
        {
          "internalType": "string",
          "name": "word",
          "type": "string"
        }
      ],
      "name": "verifyAndRemoveWord",
      "outputs": [],
      "stateMutability": "nonpayable",
      "type": "function"
    },
    {
      "inputs": [
        {
          "internalType": "uint256",
          "name": "i",
          "type": "uint256"
        }
      ],
      "name": "zeros",
      "outputs": [
        {
          "internalType": "bytes32",
          "name": "",
          "type": "bytes32"
        }
      ],
      "stateMutability": "pure",
      "type": "function"
    }
  ],
  "bytecode": {
    "object": "0x60c0604052600380546001600160401b03191690553480156200002157600080fd5b50604051620019c8380380620019c88339810160408190526200004491620007d3565b60147383584f83f26af4edda9cbe8c730bc87c364b28fe6200006a565b60405180910390fd5b60208263ffffffff1610620000c25760405162461bcd60e51b815260206004820152601e60248201527f5f6c6576656c732073686f756c64206265206c657373207468616e2033320000604482015260640162000061565b6000805463ffffffff191663ffffffff84161781556001600160a01b0382166080525b8263ffffffff168163ffffffff16101562000136576200010b63ffffffff82166200018a565b63ffffffff8216600090815260016020526040902055806200012d8162000803565b915050620000e5565b50620001546200014860018462000829565b63ffffffff166200018a565b6000805260026020527fac33ff75c19e70fe83507db0d683fd3465c996598dc972688b7ace676c89077b55505060a05262000851565b600081600003620001bc57507f2fe54c60d3acabf3343a35b6eba15db4821b340f76e741e2249685ed4899af6c919050565b81600103620001ec57507f256a6135777eee2fd26f54b8b7037a25439d5235caee224154186d2b8a52e31d919050565b816002036200021c57507f1151949895e82ab19924de92c40a3d6f7bcb60d92b00504b8199613683f0c200919050565b816003036200024c57507f20121ee811489ff8d61f09fb89e313f14959a0f28bb428a20dba6b0b068b3bdb919050565b816004036200027c57507f0a89ca6ffa14cc462cfedb842c30ed221a50a3d6bf022a6a57dc82ab24c157c9919050565b81600503620002ac57507f24ca05c2b5cd42e890d6be94c68d0689f4f21c9cec9c0f13fe41d566dfb54959919050565b81600603620002dc57507f1ccb97c932565a92c60156bdba2d08f3bf1377464e025cee765679e604a7315c919050565b816007036200030c57507f19156fbd7d1a8bf5cba8909367de1b624534ebab4f0f79e003bccdd1b182bdb4919050565b816008036200033c57507f261af8c1f0912e465744641409f622d466c3920ac6e5ff37e36604cb11dfff80919050565b816009036200036b57507e58459724ff6ca5a1652fcbc3e82b93895cf08e975b19beab3f54c217d1c007919050565b81600a036200039b57507f1f04ef20dee48d39984d8eabe768a70eafa6310ad20849d4573c3c40c2ad1e30919050565b81600b03620003cb57507f1bea3dec5dab51567ce7e200a30f7ba6d4276aeaa53e2686f962a46c66d511e5919050565b81600c03620003fb57507f0ee0f941e2da4b9e31c3ca97a40d8fa9ce68d97c084177071b3cb46cd3372f0f919050565b81600d036200042b57507f1ca9503e8935884501bbaf20be14eb4c46b89772c97b96e3b2ebf3a36a948bbd919050565b81600e036200045b57507f133a80e30697cd55d8f7d4b0965b7be24057ba5dc3da898ee2187232446cb108919050565b81600f036200048b57507f13e6d8fc88839ed76e182c2a779af5b2c0da9dd18c90427a644f7e148a6253b6919050565b81601003620004bb57507f1eb16b057a477f4bc8f572ea6bee39561098f78f15bfb3699dcbb7bd8db61854919050565b81601103620004eb57507f0da2cb16a1ceaabf1c16b838f7a9e3f2a3a3088d9e0a6debaa748114620696ea919050565b816012036200051b57507f24a3b3d822420b14b5d8cb6c28a574f01e98ea9e940551d2ebd75cee12649f9d919050565b816013036200054b57507f198622acbd783d1b0d9064105b1fc8e4d8889de95c4c519b3f635809fe6afc05919050565b816014036200057b57507f29d7ed391256ccc3ea596c86e933b89ff339d25ea8ddced975ae2fe30b5296d4919050565b81601503620005ab57507f19be59f2f0413ce78c0c3703a3a5451b1d7f39629fa33abd11548a76065b2967919050565b81601603620005db57507f1ff3f61797e538b70e619310d33f2a063e7eb59104e112e95738da1254dc3453919050565b816017036200060b57507f10c16ae9959cf8358980d9dd9616e48228737310a10e2b6b731c1a548f036c48919050565b816018036200063b57507f0ba433a63174a90ac20992e75e3095496812b652685b5e1a2eae0b1bf4e8fcd1919050565b816019036200066b57507f019ddb9df2bc98d987d0dfeca9d2b643deafab8f7036562e627c3667266a044c919050565b81601a036200069b57507f2d3c88b23175c5a5565db928414c66d1912b11acf974b2e644caaac04739ce99919050565b81601b03620006cb57507f2eab55f6ae4e66e32c5189eed5c470840863445760f5ed7e7b69b2a62600f354919050565b81601c03620006fa57507e2df37a2642621802383cf952bf4dd1f32e05433beeb1fd41031fb7eace979d919050565b81601d036200072a57507f104aeb41435db66c3e62feccc1d6f5d98d0a0ed75d1374db457cf462e3a1f427919050565b81601e036200075a57507f1f3c6fd858e9a7d4b0d1f38e256a09d81d5a5e3c963987e2d4b814cfab7c6ebb919050565b81601f036200078a57507f2c7a07d20dff79d01fecedc1134284a8d08436606c93693b67e333f671bf69cc919050565b60405162461bcd60e51b815260206004820152601360248201527f496e646578206f7574206f6620626f756e647300000000000000000000000000604482015260640162000061565b600060208284031215620007e657600080fd5b5051919050565b634e487b7160e01b600052601160045260246000fd5b600063ffffffff8083168181036200081f576200081f620007ed565b6001019392505050565b600063ffffffff83811690831681811015620008495762000849620007ed565b039392505050565b60805160a05161114a6200087e6000396000818161076e01526108220152600061031e015261114a6000f3fe6080604052600436106100fe5760003560e01c8063b214faa511610095578063e829558811610064578063e8295588146102b8578063ec732959146102d8578063ed33639f1461030c578063f178e47c14610358578063fc7e9c6f1461038557600080fd5b8063b214faa514610239578063ba70f7571461024c578063c2b40ae414610276578063cd87a3b4146102a357600080fd5b80636d9833e3116100d15780636d9833e3146101ac5780638ea3099e146101dc57806390eeb02b146101fc57806395bbe4e71461021957600080fd5b8063414a37ba1461010357806345af8858146101385780634ecf518b1461015a5780635436d4e81461018c575b600080fd5b34801561010f57600080fd5b506101256000805160206110f583398151915281565b6040519081526020015b60405180910390f35b34801561014457600080fd5b50610158610153366004610f2e565b6103aa565b005b34801561016657600080fd5b506000546101779063ffffffff1681565b60405163ffffffff909116815260200161012f565b34801561019857600080fd5b506101586101a7366004610f68565b6103e2565b3480156101b857600080fd5b506101cc6101c7366004611019565b6104ca565b604051901515815260200161012f565b3480156101e857600080fd5b506101256101f7366004611032565b610548565b34801561020857600080fd5b506003546101779063ffffffff1681565b34801561022557600080fd5b50610158610234366004610f2e565b610715565b610158610247366004611019565b610820565b34801561025857600080fd5b5060035463ffffffff16600090815260026020526040902054610125565b34801561028257600080fd5b50610125610291366004611019565b60026020526000908152604090205481565b3480156102af57600080fd5b50610177601e81565b3480156102c457600080fd5b506101256102d3366004611019565b6108f8565b3480156102e457600080fd5b506101257f2fe54c60d3acabf3343a35b6eba15db4821b340f76e741e2249685ed4899af6c81565b34801561031857600080fd5b506103407f000000000000000000000000000000000000000000000000000000000000000081565b6040516001600160a01b03909116815260200161012f565b34801561036457600080fd5b50610125610373366004611019565b60016020526000908152604090205481565b34801561039157600080fd5b5060035461017790640100000000900463ffffffff1681565b6005546001600160a01b0316156103c057600080fd5b600580546001600160a01b0319166001600160a01b0392909216919091179055565b6005546001600160a01b031633146104315760405162461bcd60e51b815260206004820152600d60248201526c2737903832b936b4b9b9b4b7b760991b60448201526064015b60405180910390fd5b6000816040516020016104449190611067565b60408051601f1981840301815291815281516020928301206000818152600490935291205490915060ff166104b15760405162461bcd60e51b815260206004820152601360248201527215dbdc99081a185cda081b9bdd08199bdd5b99606a1b6044820152606401610428565b6000908152600460205260409020805460ff1916905550565b60008181036104db57506000919050565b60035463ffffffff16805b63ffffffff8116600090815260026020526040902054840361050c575060019392505050565b8063ffffffff1660000361051e5750601e5b80610528816110a2565b9150508163ffffffff168163ffffffff16036104e6575060009392505050565b60006000805160206110f583398151915283106105a75760405162461bcd60e51b815260206004820181905260248201527f5f6c6566742073686f756c6420626520696e7369646520746865206669656c646044820152606401610428565b6000805160206110f5833981519152821061060e5760405162461bcd60e51b815260206004820152602160248201527f5f72696768742073686f756c6420626520696e7369646520746865206669656c6044820152601960fa1b6064820152608401610428565b60405163f47d33b560e01b81526004810184905260006024820181905284916001600160a01b0387169063f47d33b5906044016040805180830381865afa15801561065d573d6000803e3d6000fd5b505050506040513d601f19601f8201168201806040525081019061068191906110d0565b90925090506000805160206110f583398151915284830860405163f47d33b560e01b815260048101829052602481018390529092506001600160a01b0387169063f47d33b5906044016040805180830381865afa1580156106e6573d6000803e3d6000fd5b505050506040513d601f19601f8201168201806040525081019061070a91906110d0565b509695505050505050565b6005546001600160a01b0316331461075f5760405162461bcd60e51b815260206004820152600d60248201526c2737903832b936b4b9b9b4b7b760991b6044820152606401610428565b600080826001600160a01b03167f000000000000000000000000000000000000000000000000000000000000000060405160006040518083038185875af1925050503d80600081146107cd576040519150601f19603f3d011682016040523d82523d6000602084013e6107d2565b606091505b50915091508161081b5760405162461bcd60e51b81526020600482015260146024820152732330b4b632b2103a379039b2b7321022ba3432b960611b6044820152606401610428565b505050565b7f000000000000000000000000000000000000000000000000000000000000000034146108865760405162461bcd60e51b815260206004820152601460248201527315dc9bdb99c819195c1bdcda5d08185b5bdd5b9d60621b6044820152606401610428565b60008181526004602052604090205460ff16156108dd5760405162461bcd60e51b815260206004820152601560248201527412185cda08185b1c9958591e481a5b98db1d591959605a1b6044820152606401610428565b6000908152600460205260409020805460ff19166001179055565b60008160000361092957507f2fe54c60d3acabf3343a35b6eba15db4821b340f76e741e2249685ed4899af6c919050565b8160010361095857507f256a6135777eee2fd26f54b8b7037a25439d5235caee224154186d2b8a52e31d919050565b8160020361098757507f1151949895e82ab19924de92c40a3d6f7bcb60d92b00504b8199613683f0c200919050565b816003036109b657507f20121ee811489ff8d61f09fb89e313f14959a0f28bb428a20dba6b0b068b3bdb919050565b816004036109e557507f0a89ca6ffa14cc462cfedb842c30ed221a50a3d6bf022a6a57dc82ab24c157c9919050565b81600503610a1457507f24ca05c2b5cd42e890d6be94c68d0689f4f21c9cec9c0f13fe41d566dfb54959919050565b81600603610a4357507f1ccb97c932565a92c60156bdba2d08f3bf1377464e025cee765679e604a7315c919050565b81600703610a7257507f19156fbd7d1a8bf5cba8909367de1b624534ebab4f0f79e003bccdd1b182bdb4919050565b81600803610aa157507f261af8c1f0912e465744641409f622d466c3920ac6e5ff37e36604cb11dfff80919050565b81600903610acf57507e58459724ff6ca5a1652fcbc3e82b93895cf08e975b19beab3f54c217d1c007919050565b81600a03610afe57507f1f04ef20dee48d39984d8eabe768a70eafa6310ad20849d4573c3c40c2ad1e30919050565b81600b03610b2d57507f1bea3dec5dab51567ce7e200a30f7ba6d4276aeaa53e2686f962a46c66d511e5919050565b81600c03610b5c57507f0ee0f941e2da4b9e31c3ca97a40d8fa9ce68d97c084177071b3cb46cd3372f0f919050565b81600d03610b8b57507f1ca9503e8935884501bbaf20be14eb4c46b89772c97b96e3b2ebf3a36a948bbd919050565b81600e03610bba57507f133a80e30697cd55d8f7d4b0965b7be24057ba5dc3da898ee2187232446cb108919050565b81600f03610be957507f13e6d8fc88839ed76e182c2a779af5b2c0da9dd18c90427a644f7e148a6253b6919050565b81601003610c1857507f1eb16b057a477f4bc8f572ea6bee39561098f78f15bfb3699dcbb7bd8db61854919050565b81601103610c4757507f0da2cb16a1ceaabf1c16b838f7a9e3f2a3a3088d9e0a6debaa748114620696ea919050565b81601203610c7657507f24a3b3d822420b14b5d8cb6c28a574f01e98ea9e940551d2ebd75cee12649f9d919050565b81601303610ca557507f198622acbd783d1b0d9064105b1fc8e4d8889de95c4c519b3f635809fe6afc05919050565b81601403610cd457507f29d7ed391256ccc3ea596c86e933b89ff339d25ea8ddced975ae2fe30b5296d4919050565b81601503610d0357507f19be59f2f0413ce78c0c3703a3a5451b1d7f39629fa33abd11548a76065b2967919050565b81601603610d3257507f1ff3f61797e538b70e619310d33f2a063e7eb59104e112e95738da1254dc3453919050565b81601703610d6157507f10c16ae9959cf8358980d9dd9616e48228737310a10e2b6b731c1a548f036c48919050565b81601803610d9057507f0ba433a63174a90ac20992e75e3095496812b652685b5e1a2eae0b1bf4e8fcd1919050565b81601903610dbf57507f019ddb9df2bc98d987d0dfeca9d2b643deafab8f7036562e627c3667266a044c919050565b81601a03610dee57507f2d3c88b23175c5a5565db928414c66d1912b11acf974b2e644caaac04739ce99919050565b81601b03610e1d57507f2eab55f6ae4e66e32c5189eed5c470840863445760f5ed7e7b69b2a62600f354919050565b81601c03610e4b57507e2df37a2642621802383cf952bf4dd1f32e05433beeb1fd41031fb7eace979d919050565b81601d03610e7a57507f104aeb41435db66c3e62feccc1d6f5d98d0a0ed75d1374db457cf462e3a1f427919050565b81601e03610ea957507f1f3c6fd858e9a7d4b0d1f38e256a09d81d5a5e3c963987e2d4b814cfab7c6ebb919050565b81601f03610ed857507f2c7a07d20dff79d01fecedc1134284a8d08436606c93693b67e333f671bf69cc919050565b60405162461bcd60e51b8152602060048201526013602482015272496e646578206f7574206f6620626f756e647360681b6044820152606401610428565b6001600160a01b0381168114610f2b57600080fd5b50565b600060208284031215610f4057600080fd5b8135610f4b81610f16565b9392505050565b634e487b7160e01b600052604160045260246000fd5b600060208284031215610f7a57600080fd5b813567ffffffffffffffff80821115610f9257600080fd5b818401915084601f830112610fa657600080fd5b813581811115610fb857610fb8610f52565b604051601f8201601f19908116603f01168101908382118183101715610fe057610fe0610f52565b81604052828152876020848701011115610ff957600080fd5b826020860160208301376000928101602001929092525095945050505050565b60006020828403121561102b57600080fd5b5035919050565b60008060006060848603121561104757600080fd5b833561105281610f16565b95602085013595506040909401359392505050565b6000825160005b81811015611088576020818601810151858301520161106e565b81811115611097576000828501525b509190910192915050565b600063ffffffff8216806110c657634e487b7160e01b600052601160045260246000fd5b6000190192915050565b600080604083850312156110e357600080fd5b50508051602090910151909290915056fe30644e72e131a029b85045b68181585d2833e84879b9709143e1f593f0000001a264697066735822122098e1248e595cdac041d914903b8ad4d201859003832b6ada50cacc109b32399c64736f6c634300080f0033",
    "linkReferences": {}
  },
  "methodIdentifiers": {
    "FIELD_SIZE()": "414a37ba",
    "ROOT_HISTORY_SIZE()": "cd87a3b4",
    "ZERO_VALUE()": "ec732959",
    "currentRootIndex()": "90eeb02b",
    "deposit(bytes32)": "b214faa5",
    "filledSubtrees(uint256)": "f178e47c",
    "getLastRoot()": "ba70f757",
    "hashLeftRight(address,bytes32,bytes32)": "8ea3099e",
    "hasher()": "ed33639f",
    "isKnownRoot(bytes32)": "6d9833e3",
    "levels()": "4ecf518b",
    "nextIndex()": "fc7e9c6f",
    "rewardRelayer(address)": "95bbe4e7",
    "roots(uint256)": "c2b40ae4",
    "setLensInteractor(address)": "45af8858",
    "verifyAndRemoveWord(string)": "5436d4e8",
    "zeros(uint256)": "e8295588"
  },
  "id": 9
}