{
  "abi": [
    {
      "inputs": [
        {
          "internalType": "uint256",
          "name": "_depostiAmount",
          "type": "uint256"
        },
        {
          "internalType": "contract Verifier",
          "name": "_verifier",
          "type": "address"
        }
      ],
      "stateMutability": "nonpayable",
      "type": "constructor"
    },
    {
      "inputs": [],
      "name": "FIELD_SIZE",
      "outputs": [
        {
          "internalType": "uint256",
          "name": "",
          "type": "uint256"
        }
      ],
      "stateMutability": "view",
      "type": "function"
    },
    {
      "inputs": [],
      "name": "ROOT_HISTORY_SIZE",
      "outputs": [
        {
          "internalType": "uint32",
          "name": "",
          "type": "uint32"
        }
      ],
      "stateMutability": "view",
      "type": "function"
    },
    {
      "inputs": [],
      "name": "ZERO_VALUE",
      "outputs": [
        {
          "internalType": "uint256",
          "name": "",
          "type": "uint256"
        }
      ],
      "stateMutability": "view",
      "type": "function"
    },
    {
      "inputs": [
        {
          "internalType": "bytes32",
          "name": "",
          "type": "bytes32"
        }
      ],
      "name": "commitments",
      "outputs": [
        {
          "internalType": "bool",
          "name": "",
          "type": "bool"
        }
      ],
      "stateMutability": "view",
      "type": "function"
    },
    {
      "inputs": [],
      "name": "currentRootIndex",
      "outputs": [
        {
          "internalType": "uint32",
          "name": "",
          "type": "uint32"
        }
      ],
      "stateMutability": "view",
      "type": "function"
    },
    {
      "inputs": [
        {
          "internalType": "bytes32",
          "name": "commitment",
          "type": "bytes32"
        }
      ],
      "name": "deposit",
      "outputs": [],
      "stateMutability": "payable",
      "type": "function"
    },
    {
      "inputs": [
        {
          "internalType": "uint256",
          "name": "",
          "type": "uint256"
        }
      ],
      "name": "filledSubtrees",
      "outputs": [
        {
          "internalType": "bytes32",
          "name": "",
          "type": "bytes32"
        }
      ],
      "stateMutability": "view",
      "type": "function"
    },
    {
      "inputs": [],
      "name": "getLastRoot",
      "outputs": [
        {
          "internalType": "bytes32",
          "name": "",
          "type": "bytes32"
        }
      ],
      "stateMutability": "view",
      "type": "function"
    },
    {
      "inputs": [
        {
          "internalType": "contract IHasher",
          "name": "_hasher",
          "type": "address"
        },
        {
          "internalType": "bytes32",
          "name": "_left",
          "type": "bytes32"
        },
        {
          "internalType": "bytes32",
          "name": "_right",
          "type": "bytes32"
        }
      ],
      "name": "hashLeftRight",
      "outputs": [
        {
          "internalType": "bytes32",
          "name": "",
          "type": "bytes32"
        }
      ],
      "stateMutability": "pure",
      "type": "function"
    },
    {
      "inputs": [],
      "name": "hasher",
      "outputs": [
        {
          "internalType": "contract IHasher",
          "name": "",
          "type": "address"
        }
      ],
      "stateMutability": "view",
      "type": "function"
    },
    {
      "inputs": [
        {
          "internalType": "bytes32",
          "name": "_root",
          "type": "bytes32"
        }
      ],
      "name": "isKnownRoot",
      "outputs": [
        {
          "internalType": "bool",
          "name": "",
          "type": "bool"
        }
      ],
      "stateMutability": "view",
      "type": "function"
    },
    {
      "inputs": [],
      "name": "levels",
      "outputs": [
        {
          "internalType": "uint32",
          "name": "",
          "type": "uint32"
        }
      ],
      "stateMutability": "view",
      "type": "function"
    },
    {
      "inputs": [],
      "name": "nextIndex",
      "outputs": [
        {
          "internalType": "uint32",
          "name": "",
          "type": "uint32"
        }
      ],
      "stateMutability": "view",
      "type": "function"
    },
    {
      "inputs": [
        {
          "internalType": "bytes32",
          "name": "",
          "type": "bytes32"
        }
      ],
      "name": "nullifierHashes",
      "outputs": [
        {
          "internalType": "bool",
          "name": "",
          "type": "bool"
        }
      ],
      "stateMutability": "view",
      "type": "function"
    },
    {
      "inputs": [
        {
          "internalType": "address",
          "name": "relayer",
          "type": "address"
        }
      ],
      "name": "rewardRelayer",
      "outputs": [],
      "stateMutability": "nonpayable",
      "type": "function"
    },
    {
      "inputs": [
        {
          "internalType": "uint256",
          "name": "",
          "type": "uint256"
        }
      ],
      "name": "roots",
      "outputs": [
        {
          "internalType": "bytes32",
          "name": "",
          "type": "bytes32"
        }
      ],
      "stateMutability": "view",
      "type": "function"
    },
    {
      "inputs": [
        {
          "internalType": "address",
          "name": "_lensInteractor",
          "type": "address"
        }
      ],
      "name": "setLensInteractor",
      "outputs": [],
      "stateMutability": "nonpayable",
      "type": "function"
    },
    {
      "inputs": [],
      "name": "verifier",
      "outputs": [
        {
          "internalType": "contract Verifier",
          "name": "",
          "type": "address"
        }
      ],
      "stateMutability": "view",
      "type": "function"
    },
    {
      "inputs": [
        {
          "internalType": "bytes",
          "name": "proof",
          "type": "bytes"
        },
        {
          "internalType": "bytes32",
          "name": "root",
          "type": "bytes32"
        },
        {
          "internalType": "bytes32",
          "name": "nullifierHash",
          "type": "bytes32"
        }
      ],
      "name": "verify",
      "outputs": [],
      "stateMutability": "nonpayable",
      "type": "function"
    },
    {
      "inputs": [
        {
          "internalType": "uint256",
          "name": "i",
          "type": "uint256"
        }
      ],
      "name": "zeros",
      "outputs": [
        {
          "internalType": "bytes32",
          "name": "",
          "type": "bytes32"
        }
      ],
      "stateMutability": "pure",
      "type": "function"
    }
  ],
  "bytecode": {
    "object": "0x60e0604052600380546001600160401b03191690553480156200002157600080fd5b5060405162001b8038038062001b808339810160408190526200004491620007e2565b60147383584f83f26af4edda9cbe8c730bc87c364b28fe6200006a565b60405180910390fd5b60208263ffffffff1610620000c25760405162461bcd60e51b815260206004820152601e60248201527f5f6c6576656c732073686f756c64206265206c657373207468616e2033320000604482015260640162000061565b6000805463ffffffff191663ffffffff84161781556001600160a01b0382166080525b8263ffffffff168163ffffffff16101562000136576200010b63ffffffff821662000199565b63ffffffff8216600090815260016020526040902055806200012d8162000837565b915050620000e5565b5062000154620001486001846200085d565b63ffffffff1662000199565b6000805260026020527fac33ff75c19e70fe83507db0d683fd3465c996598dc972688b7ace676c89077b55505060c0919091526001600160a01b031660a05262000885565b600081600003620001cb57507f2fe54c60d3acabf3343a35b6eba15db4821b340f76e741e2249685ed4899af6c919050565b81600103620001fb57507f256a6135777eee2fd26f54b8b7037a25439d5235caee224154186d2b8a52e31d919050565b816002036200022b57507f1151949895e82ab19924de92c40a3d6f7bcb60d92b00504b8199613683f0c200919050565b816003036200025b57507f20121ee811489ff8d61f09fb89e313f14959a0f28bb428a20dba6b0b068b3bdb919050565b816004036200028b57507f0a89ca6ffa14cc462cfedb842c30ed221a50a3d6bf022a6a57dc82ab24c157c9919050565b81600503620002bb57507f24ca05c2b5cd42e890d6be94c68d0689f4f21c9cec9c0f13fe41d566dfb54959919050565b81600603620002eb57507f1ccb97c932565a92c60156bdba2d08f3bf1377464e025cee765679e604a7315c919050565b816007036200031b57507f19156fbd7d1a8bf5cba8909367de1b624534ebab4f0f79e003bccdd1b182bdb4919050565b816008036200034b57507f261af8c1f0912e465744641409f622d466c3920ac6e5ff37e36604cb11dfff80919050565b816009036200037a57507e58459724ff6ca5a1652fcbc3e82b93895cf08e975b19beab3f54c217d1c007919050565b81600a03620003aa57507f1f04ef20dee48d39984d8eabe768a70eafa6310ad20849d4573c3c40c2ad1e30919050565b81600b03620003da57507f1bea3dec5dab51567ce7e200a30f7ba6d4276aeaa53e2686f962a46c66d511e5919050565b81600c036200040a57507f0ee0f941e2da4b9e31c3ca97a40d8fa9ce68d97c084177071b3cb46cd3372f0f919050565b81600d036200043a57507f1ca9503e8935884501bbaf20be14eb4c46b89772c97b96e3b2ebf3a36a948bbd919050565b81600e036200046a57507f133a80e30697cd55d8f7d4b0965b7be24057ba5dc3da898ee2187232446cb108919050565b81600f036200049a57507f13e6d8fc88839ed76e182c2a779af5b2c0da9dd18c90427a644f7e148a6253b6919050565b81601003620004ca57507f1eb16b057a477f4bc8f572ea6bee39561098f78f15bfb3699dcbb7bd8db61854919050565b81601103620004fa57507f0da2cb16a1ceaabf1c16b838f7a9e3f2a3a3088d9e0a6debaa748114620696ea919050565b816012036200052a57507f24a3b3d822420b14b5d8cb6c28a574f01e98ea9e940551d2ebd75cee12649f9d919050565b816013036200055a57507f198622acbd783d1b0d9064105b1fc8e4d8889de95c4c519b3f635809fe6afc05919050565b816014036200058a57507f29d7ed391256ccc3ea596c86e933b89ff339d25ea8ddced975ae2fe30b5296d4919050565b81601503620005ba57507f19be59f2f0413ce78c0c3703a3a5451b1d7f39629fa33abd11548a76065b2967919050565b81601603620005ea57507f1ff3f61797e538b70e619310d33f2a063e7eb59104e112e95738da1254dc3453919050565b816017036200061a57507f10c16ae9959cf8358980d9dd9616e48228737310a10e2b6b731c1a548f036c48919050565b816018036200064a57507f0ba433a63174a90ac20992e75e3095496812b652685b5e1a2eae0b1bf4e8fcd1919050565b816019036200067a57507f019ddb9df2bc98d987d0dfeca9d2b643deafab8f7036562e627c3667266a044c919050565b81601a03620006aa57507f2d3c88b23175c5a5565db928414c66d1912b11acf974b2e644caaac04739ce99919050565b81601b03620006da57507f2eab55f6ae4e66e32c5189eed5c470840863445760f5ed7e7b69b2a62600f354919050565b81601c036200070957507e2df37a2642621802383cf952bf4dd1f32e05433beeb1fd41031fb7eace979d919050565b81601d036200073957507f104aeb41435db66c3e62feccc1d6f5d98d0a0ed75d1374db457cf462e3a1f427919050565b81601e036200076957507f1f3c6fd858e9a7d4b0d1f38e256a09d81d5a5e3c963987e2d4b814cfab7c6ebb919050565b81601f036200079957507f2c7a07d20dff79d01fecedc1134284a8d08436606c93693b67e333f671bf69cc919050565b60405162461bcd60e51b815260206004820152601360248201527f496e646578206f7574206f6620626f756e647300000000000000000000000000604482015260640162000061565b60008060408385031215620007f657600080fd5b825160208401519092506001600160a01b03811681146200081657600080fd5b809150509250929050565b634e487b7160e01b600052601160045260246000fd5b600063ffffffff80831681810362000853576200085362000821565b6001019392505050565b600063ffffffff838116908316818110156200087d576200087d62000821565b039392505050565b60805160a05160c0516112bd620008c360003960008181610740015261099901526000818161017b01526108ff015260006103eb01526112bd6000f3fe60806040526004361061011f5760003560e01c8063ab750e75116100a0578063e829558811610064578063e829558814610385578063ec732959146103a5578063ed33639f146103d9578063f178e47c1461040d578063fc7e9c6f1461043a57600080fd5b8063ab750e75146102e6578063b214faa514610306578063ba70f75714610319578063c2b40ae414610343578063cd87a3b41461037057600080fd5b80636d9833e3116100e75780636d9833e314610239578063839df945146102595780638ea3099e1461028957806390eeb02b146102a957806395bbe4e7146102c657600080fd5b806317cc915c146101245780632b7ac3f314610169578063414a37ba146101b557806345af8858146101e55780634ecf518b14610207575b600080fd5b34801561013057600080fd5b5061015461013f36600461108d565b60056020526000908152604090205460ff1681565b60405190151581526020015b60405180910390f35b34801561017557600080fd5b5061019d7f000000000000000000000000000000000000000000000000000000000000000081565b6040516001600160a01b039091168152602001610160565b3480156101c157600080fd5b506101d760008051602061126883398151915281565b604051908152602001610160565b3480156101f157600080fd5b506102056102003660046110be565b61045f565b005b34801561021357600080fd5b506000546102249063ffffffff1681565b60405163ffffffff9091168152602001610160565b34801561024557600080fd5b5061015461025436600461108d565b610497565b34801561026557600080fd5b5061015461027436600461108d565b60046020526000908152604090205460ff1681565b34801561029557600080fd5b506101d76102a43660046110e2565b610515565b3480156102b557600080fd5b506003546102249063ffffffff1681565b3480156102d257600080fd5b506102056102e13660046110be565b6106e7565b3480156102f257600080fd5b50610205610301366004611117565b6107f2565b61020561031436600461108d565b610997565b34801561032557600080fd5b5060035463ffffffff166000908152600260205260409020546101d7565b34801561034f57600080fd5b506101d761035e36600461108d565b60026020526000908152604090205481565b34801561037c57600080fd5b50610224601e81565b34801561039157600080fd5b506101d76103a036600461108d565b610a6f565b3480156103b157600080fd5b506101d77f2fe54c60d3acabf3343a35b6eba15db4821b340f76e741e2249685ed4899af6c81565b3480156103e557600080fd5b5061019d7f000000000000000000000000000000000000000000000000000000000000000081565b34801561041957600080fd5b506101d761042836600461108d565b60016020526000908152604090205481565b34801561044657600080fd5b5060035461022490640100000000900463ffffffff1681565b6006546001600160a01b03161561047557600080fd5b600680546001600160a01b0319166001600160a01b0392909216919091179055565b60008181036104a857506000919050565b60035463ffffffff16805b63ffffffff811660009081526002602052604090205484036104d9575060019392505050565b8063ffffffff166000036104eb5750601e5b806104f581611196565b9150508163ffffffff168163ffffffff16036104b3575060009392505050565b600060008051602061126883398151915283106105795760405162461bcd60e51b815260206004820181905260248201527f5f6c6566742073686f756c6420626520696e7369646520746865206669656c6460448201526064015b60405180910390fd5b60008051602061126883398151915282106105e05760405162461bcd60e51b815260206004820152602160248201527f5f72696768742073686f756c6420626520696e7369646520746865206669656c6044820152601960fa1b6064820152608401610570565b60405163f47d33b560e01b81526004810184905260006024820181905284916001600160a01b0387169063f47d33b5906044016040805180830381865afa15801561062f573d6000803e3d6000fd5b505050506040513d601f19601f8201168201806040525081019061065391906111c4565b909250905060008051602061126883398151915284830860405163f47d33b560e01b815260048101829052602481018390529092506001600160a01b0387169063f47d33b5906044016040805180830381865afa1580156106b8573d6000803e3d6000fd5b505050506040513d601f19601f820116820180604052508101906106dc91906111c4565b509695505050505050565b6006546001600160a01b031633146107315760405162461bcd60e51b815260206004820152600d60248201526c2737903832b936b4b9b9b4b7b760991b6044820152606401610570565b600080826001600160a01b03167f000000000000000000000000000000000000000000000000000000000000000060405160006040518083038185875af1925050503d806000811461079f576040519150601f19603f3d011682016040523d82523d6000602084013e6107a4565b606091505b5091509150816107ed5760405162461bcd60e51b81526020600482015260146024820152732330b4b632b2103a379039b2b7321022ba3432b960611b6044820152606401610570565b505050565b6006546001600160a01b0316331461083c5760405162461bcd60e51b815260206004820152600d60248201526c2737903832b936b4b9b9b4b7b760991b6044820152606401610570565b60008181526005602052604090205460ff161561088b5760405162461bcd60e51b815260206004820152600d60248201526c105b1c9958591e481cdc195b9d609a1b6044820152606401610570565b61089482610497565b6108d65760405162461bcd60e51b8152602060048201526013602482015272125b9d985b1a59081b595c9adb19481c9bdbdd606a1b6044820152606401610570565b6040805180820182528381526020810183905290516370ffa84160e11b81526001600160a01b037f0000000000000000000000000000000000000000000000000000000000000000169163e1ff5082916109379188918891906004016111e8565b602060405180830381865afa158015610954573d6000803e3d6000fd5b505050506040513d601f19601f820116820180604052508101906109789190611245565b506000908152600560205260409020805460ff19166001179055505050565b7f000000000000000000000000000000000000000000000000000000000000000034146109fd5760405162461bcd60e51b815260206004820152601460248201527315dc9bdb99c819195c1bdcda5d08185b5bdd5b9d60621b6044820152606401610570565b60008181526004602052604090205460ff1615610a545760405162461bcd60e51b815260206004820152601560248201527412185cda08185b1c9958591e481a5b98db1d591959605a1b6044820152606401610570565b6000908152600460205260409020805460ff19166001179055565b600081600003610aa057507f2fe54c60d3acabf3343a35b6eba15db4821b340f76e741e2249685ed4899af6c919050565b81600103610acf57507f256a6135777eee2fd26f54b8b7037a25439d5235caee224154186d2b8a52e31d919050565b81600203610afe57507f1151949895e82ab19924de92c40a3d6f7bcb60d92b00504b8199613683f0c200919050565b81600303610b2d57507f20121ee811489ff8d61f09fb89e313f14959a0f28bb428a20dba6b0b068b3bdb919050565b81600403610b5c57507f0a89ca6ffa14cc462cfedb842c30ed221a50a3d6bf022a6a57dc82ab24c157c9919050565b81600503610b8b57507f24ca05c2b5cd42e890d6be94c68d0689f4f21c9cec9c0f13fe41d566dfb54959919050565b81600603610bba57507f1ccb97c932565a92c60156bdba2d08f3bf1377464e025cee765679e604a7315c919050565b81600703610be957507f19156fbd7d1a8bf5cba8909367de1b624534ebab4f0f79e003bccdd1b182bdb4919050565b81600803610c1857507f261af8c1f0912e465744641409f622d466c3920ac6e5ff37e36604cb11dfff80919050565b81600903610c4657507e58459724ff6ca5a1652fcbc3e82b93895cf08e975b19beab3f54c217d1c007919050565b81600a03610c7557507f1f04ef20dee48d39984d8eabe768a70eafa6310ad20849d4573c3c40c2ad1e30919050565b81600b03610ca457507f1bea3dec5dab51567ce7e200a30f7ba6d4276aeaa53e2686f962a46c66d511e5919050565b81600c03610cd357507f0ee0f941e2da4b9e31c3ca97a40d8fa9ce68d97c084177071b3cb46cd3372f0f919050565b81600d03610d0257507f1ca9503e8935884501bbaf20be14eb4c46b89772c97b96e3b2ebf3a36a948bbd919050565b81600e03610d3157507f133a80e30697cd55d8f7d4b0965b7be24057ba5dc3da898ee2187232446cb108919050565b81600f03610d6057507f13e6d8fc88839ed76e182c2a779af5b2c0da9dd18c90427a644f7e148a6253b6919050565b81601003610d8f57507f1eb16b057a477f4bc8f572ea6bee39561098f78f15bfb3699dcbb7bd8db61854919050565b81601103610dbe57507f0da2cb16a1ceaabf1c16b838f7a9e3f2a3a3088d9e0a6debaa748114620696ea919050565b81601203610ded57507f24a3b3d822420b14b5d8cb6c28a574f01e98ea9e940551d2ebd75cee12649f9d919050565b81601303610e1c57507f198622acbd783d1b0d9064105b1fc8e4d8889de95c4c519b3f635809fe6afc05919050565b81601403610e4b57507f29d7ed391256ccc3ea596c86e933b89ff339d25ea8ddced975ae2fe30b5296d4919050565b81601503610e7a57507f19be59f2f0413ce78c0c3703a3a5451b1d7f39629fa33abd11548a76065b2967919050565b81601603610ea957507f1ff3f61797e538b70e619310d33f2a063e7eb59104e112e95738da1254dc3453919050565b81601703610ed857507f10c16ae9959cf8358980d9dd9616e48228737310a10e2b6b731c1a548f036c48919050565b81601803610f0757507f0ba433a63174a90ac20992e75e3095496812b652685b5e1a2eae0b1bf4e8fcd1919050565b81601903610f3657507f019ddb9df2bc98d987d0dfeca9d2b643deafab8f7036562e627c3667266a044c919050565b81601a03610f6557507f2d3c88b23175c5a5565db928414c66d1912b11acf974b2e644caaac04739ce99919050565b81601b03610f9457507f2eab55f6ae4e66e32c5189eed5c470840863445760f5ed7e7b69b2a62600f354919050565b81601c03610fc257507e2df37a2642621802383cf952bf4dd1f32e05433beeb1fd41031fb7eace979d919050565b81601d03610ff157507f104aeb41435db66c3e62feccc1d6f5d98d0a0ed75d1374db457cf462e3a1f427919050565b81601e0361102057507f1f3c6fd858e9a7d4b0d1f38e256a09d81d5a5e3c963987e2d4b814cfab7c6ebb919050565b81601f0361104f57507f2c7a07d20dff79d01fecedc1134284a8d08436606c93693b67e333f671bf69cc919050565b60405162461bcd60e51b8152602060048201526013602482015272496e646578206f7574206f6620626f756e647360681b6044820152606401610570565b60006020828403121561109f57600080fd5b5035919050565b6001600160a01b03811681146110bb57600080fd5b50565b6000602082840312156110d057600080fd5b81356110db816110a6565b9392505050565b6000806000606084860312156110f757600080fd5b8335611102816110a6565b95602085013595506040909401359392505050565b6000806000806060858703121561112d57600080fd5b843567ffffffffffffffff8082111561114557600080fd5b818701915087601f83011261115957600080fd5b81358181111561116857600080fd5b88602082850101111561117a57600080fd5b6020928301999098509187013596604001359550909350505050565b600063ffffffff8216806111ba57634e487b7160e01b600052601160045260246000fd5b6000190192915050565b600080604083850312156111d757600080fd5b505080516020909101519092909150565b606081528260608201528284608083013760006080848301015260006080601f19601f860116830101905060208083018460005b60028110156112395781518352918301919083019060010161121c565b50505050949350505050565b60006020828403121561125757600080fd5b815180151581146110db57600080fdfe30644e72e131a029b85045b68181585d2833e84879b9709143e1f593f0000001a264697066735822122064efd3ccdebebaf56239c0416f9c816a9eaf2e1c535362b535b5301d2f69e75b64736f6c634300080f0033",
    "linkReferences": {}
  },
  "methodIdentifiers": {
    "FIELD_SIZE()": "414a37ba",
    "ROOT_HISTORY_SIZE()": "cd87a3b4",
    "ZERO_VALUE()": "ec732959",
    "commitments(bytes32)": "839df945",
    "currentRootIndex()": "90eeb02b",
    "deposit(bytes32)": "b214faa5",
    "filledSubtrees(uint256)": "f178e47c",
    "getLastRoot()": "ba70f757",
    "hashLeftRight(address,bytes32,bytes32)": "8ea3099e",
    "hasher()": "ed33639f",
    "isKnownRoot(bytes32)": "6d9833e3",
    "levels()": "4ecf518b",
    "nextIndex()": "fc7e9c6f",
    "nullifierHashes(bytes32)": "17cc915c",
    "rewardRelayer(address)": "95bbe4e7",
    "roots(uint256)": "c2b40ae4",
    "setLensInteractor(address)": "45af8858",
    "verifier()": "2b7ac3f3",
    "verify(bytes,bytes32,bytes32)": "ab750e75",
    "zeros(uint256)": "e8295588"
  },
  "id": 10
}