{
  "abi": [
    {
      "inputs": [
        {
          "internalType": "uint256",
          "name": "_depostiAmount",
          "type": "uint256"
        }
      ],
      "stateMutability": "nonpayable",
      "type": "constructor"
    },
    {
      "inputs": [],
      "name": "FIELD_SIZE",
      "outputs": [
        {
          "internalType": "uint256",
          "name": "",
          "type": "uint256"
        }
      ],
      "stateMutability": "view",
      "type": "function"
    },
    {
      "inputs": [],
      "name": "ROOT_HISTORY_SIZE",
      "outputs": [
        {
          "internalType": "uint32",
          "name": "",
          "type": "uint32"
        }
      ],
      "stateMutability": "view",
      "type": "function"
    },
    {
      "inputs": [],
      "name": "ZERO_VALUE",
      "outputs": [
        {
          "internalType": "uint256",
          "name": "",
          "type": "uint256"
        }
      ],
      "stateMutability": "view",
      "type": "function"
    },
    {
      "inputs": [
        {
          "internalType": "bytes32",
          "name": "",
          "type": "bytes32"
        }
      ],
      "name": "commitments",
      "outputs": [
        {
          "internalType": "bool",
          "name": "",
          "type": "bool"
        }
      ],
      "stateMutability": "view",
      "type": "function"
    },
    {
      "inputs": [],
      "name": "currentRootIndex",
      "outputs": [
        {
          "internalType": "uint32",
          "name": "",
          "type": "uint32"
        }
      ],
      "stateMutability": "view",
      "type": "function"
    },
    {
      "inputs": [
        {
          "internalType": "bytes32",
          "name": "commitment",
          "type": "bytes32"
        }
      ],
      "name": "deposit",
      "outputs": [],
      "stateMutability": "payable",
      "type": "function"
    },
    {
      "inputs": [
        {
          "internalType": "uint256",
          "name": "",
          "type": "uint256"
        }
      ],
      "name": "filledSubtrees",
      "outputs": [
        {
          "internalType": "bytes32",
          "name": "",
          "type": "bytes32"
        }
      ],
      "stateMutability": "view",
      "type": "function"
    },
    {
      "inputs": [],
      "name": "getLastRoot",
      "outputs": [
        {
          "internalType": "bytes32",
          "name": "",
          "type": "bytes32"
        }
      ],
      "stateMutability": "view",
      "type": "function"
    },
    {
      "inputs": [
        {
          "internalType": "contract IHasher",
          "name": "_hasher",
          "type": "address"
        },
        {
          "internalType": "bytes32",
          "name": "_left",
          "type": "bytes32"
        },
        {
          "internalType": "bytes32",
          "name": "_right",
          "type": "bytes32"
        }
      ],
      "name": "hashLeftRight",
      "outputs": [
        {
          "internalType": "bytes32",
          "name": "",
          "type": "bytes32"
        }
      ],
      "stateMutability": "pure",
      "type": "function"
    },
    {
      "inputs": [],
      "name": "hasher",
      "outputs": [
        {
          "internalType": "contract IHasher",
          "name": "",
          "type": "address"
        }
      ],
      "stateMutability": "view",
      "type": "function"
    },
    {
      "inputs": [
        {
          "internalType": "bytes32",
          "name": "_root",
          "type": "bytes32"
        }
      ],
      "name": "isKnownRoot",
      "outputs": [
        {
          "internalType": "bool",
          "name": "",
          "type": "bool"
        }
      ],
      "stateMutability": "view",
      "type": "function"
    },
    {
      "inputs": [],
      "name": "levels",
      "outputs": [
        {
          "internalType": "uint32",
          "name": "",
          "type": "uint32"
        }
      ],
      "stateMutability": "view",
      "type": "function"
    },
    {
      "inputs": [],
      "name": "nextIndex",
      "outputs": [
        {
          "internalType": "uint32",
          "name": "",
          "type": "uint32"
        }
      ],
      "stateMutability": "view",
      "type": "function"
    },
    {
      "inputs": [
        {
          "internalType": "bytes32",
          "name": "",
          "type": "bytes32"
        }
      ],
      "name": "nullifierHashes",
      "outputs": [
        {
          "internalType": "bool",
          "name": "",
          "type": "bool"
        }
      ],
      "stateMutability": "view",
      "type": "function"
    },
    {
      "inputs": [
        {
          "internalType": "address",
          "name": "relayer",
          "type": "address"
        }
      ],
      "name": "rewardRelayer",
      "outputs": [],
      "stateMutability": "nonpayable",
      "type": "function"
    },
    {
      "inputs": [
        {
          "internalType": "uint256",
          "name": "",
          "type": "uint256"
        }
      ],
      "name": "roots",
      "outputs": [
        {
          "internalType": "bytes32",
          "name": "",
          "type": "bytes32"
        }
      ],
      "stateMutability": "view",
      "type": "function"
    },
    {
      "inputs": [
        {
          "internalType": "address",
          "name": "_lensInteractor",
          "type": "address"
        }
      ],
      "name": "setLensInteractor",
      "outputs": [],
      "stateMutability": "nonpayable",
      "type": "function"
    },
    {
      "inputs": [
        {
          "internalType": "bytes",
          "name": "proof",
          "type": "bytes"
        },
        {
          "internalType": "string",
          "name": "word",
          "type": "string"
        },
        {
          "internalType": "bytes32",
          "name": "root",
          "type": "bytes32"
        },
        {
          "internalType": "bytes32",
          "name": "nullifierHash",
          "type": "bytes32"
        }
      ],
      "name": "verify",
      "outputs": [],
      "stateMutability": "nonpayable",
      "type": "function"
    },
    {
      "inputs": [
        {
          "internalType": "uint256",
          "name": "i",
          "type": "uint256"
        }
      ],
      "name": "zeros",
      "outputs": [
        {
          "internalType": "bytes32",
          "name": "",
          "type": "bytes32"
        }
      ],
      "stateMutability": "pure",
      "type": "function"
    }
  ],
  "bytecode": {
    "object": "0x60c0604052600380546001600160401b03191690553480156200002157600080fd5b5060405162001aa538038062001aa58339810160408190526200004491620007d3565b60147383584f83f26af4edda9cbe8c730bc87c364b28fe6200006a565b60405180910390fd5b60208263ffffffff1610620000c25760405162461bcd60e51b815260206004820152601e60248201527f5f6c6576656c732073686f756c64206265206c657373207468616e2033320000604482015260640162000061565b6000805463ffffffff191663ffffffff84161781556001600160a01b0382166080525b8263ffffffff168163ffffffff16101562000136576200010b63ffffffff82166200018a565b63ffffffff8216600090815260016020526040902055806200012d8162000803565b915050620000e5565b50620001546200014860018462000829565b63ffffffff166200018a565b6000805260026020527fac33ff75c19e70fe83507db0d683fd3465c996598dc972688b7ace676c89077b55505060a05262000851565b600081600003620001bc57507f2fe54c60d3acabf3343a35b6eba15db4821b340f76e741e2249685ed4899af6c919050565b81600103620001ec57507f256a6135777eee2fd26f54b8b7037a25439d5235caee224154186d2b8a52e31d919050565b816002036200021c57507f1151949895e82ab19924de92c40a3d6f7bcb60d92b00504b8199613683f0c200919050565b816003036200024c57507f20121ee811489ff8d61f09fb89e313f14959a0f28bb428a20dba6b0b068b3bdb919050565b816004036200027c57507f0a89ca6ffa14cc462cfedb842c30ed221a50a3d6bf022a6a57dc82ab24c157c9919050565b81600503620002ac57507f24ca05c2b5cd42e890d6be94c68d0689f4f21c9cec9c0f13fe41d566dfb54959919050565b81600603620002dc57507f1ccb97c932565a92c60156bdba2d08f3bf1377464e025cee765679e604a7315c919050565b816007036200030c57507f19156fbd7d1a8bf5cba8909367de1b624534ebab4f0f79e003bccdd1b182bdb4919050565b816008036200033c57507f261af8c1f0912e465744641409f622d466c3920ac6e5ff37e36604cb11dfff80919050565b816009036200036b57507e58459724ff6ca5a1652fcbc3e82b93895cf08e975b19beab3f54c217d1c007919050565b81600a036200039b57507f1f04ef20dee48d39984d8eabe768a70eafa6310ad20849d4573c3c40c2ad1e30919050565b81600b03620003cb57507f1bea3dec5dab51567ce7e200a30f7ba6d4276aeaa53e2686f962a46c66d511e5919050565b81600c03620003fb57507f0ee0f941e2da4b9e31c3ca97a40d8fa9ce68d97c084177071b3cb46cd3372f0f919050565b81600d036200042b57507f1ca9503e8935884501bbaf20be14eb4c46b89772c97b96e3b2ebf3a36a948bbd919050565b81600e036200045b57507f133a80e30697cd55d8f7d4b0965b7be24057ba5dc3da898ee2187232446cb108919050565b81600f036200048b57507f13e6d8fc88839ed76e182c2a779af5b2c0da9dd18c90427a644f7e148a6253b6919050565b81601003620004bb57507f1eb16b057a477f4bc8f572ea6bee39561098f78f15bfb3699dcbb7bd8db61854919050565b81601103620004eb57507f0da2cb16a1ceaabf1c16b838f7a9e3f2a3a3088d9e0a6debaa748114620696ea919050565b816012036200051b57507f24a3b3d822420b14b5d8cb6c28a574f01e98ea9e940551d2ebd75cee12649f9d919050565b816013036200054b57507f198622acbd783d1b0d9064105b1fc8e4d8889de95c4c519b3f635809fe6afc05919050565b816014036200057b57507f29d7ed391256ccc3ea596c86e933b89ff339d25ea8ddced975ae2fe30b5296d4919050565b81601503620005ab57507f19be59f2f0413ce78c0c3703a3a5451b1d7f39629fa33abd11548a76065b2967919050565b81601603620005db57507f1ff3f61797e538b70e619310d33f2a063e7eb59104e112e95738da1254dc3453919050565b816017036200060b57507f10c16ae9959cf8358980d9dd9616e48228737310a10e2b6b731c1a548f036c48919050565b816018036200063b57507f0ba433a63174a90ac20992e75e3095496812b652685b5e1a2eae0b1bf4e8fcd1919050565b816019036200066b57507f019ddb9df2bc98d987d0dfeca9d2b643deafab8f7036562e627c3667266a044c919050565b81601a036200069b57507f2d3c88b23175c5a5565db928414c66d1912b11acf974b2e644caaac04739ce99919050565b81601b03620006cb57507f2eab55f6ae4e66e32c5189eed5c470840863445760f5ed7e7b69b2a62600f354919050565b81601c03620006fa57507e2df37a2642621802383cf952bf4dd1f32e05433beeb1fd41031fb7eace979d919050565b81601d036200072a57507f104aeb41435db66c3e62feccc1d6f5d98d0a0ed75d1374db457cf462e3a1f427919050565b81601e036200075a57507f1f3c6fd858e9a7d4b0d1f38e256a09d81d5a5e3c963987e2d4b814cfab7c6ebb919050565b81601f036200078a57507f2c7a07d20dff79d01fecedc1134284a8d08436606c93693b67e333f671bf69cc919050565b60405162461bcd60e51b815260206004820152601360248201527f496e646578206f7574206f6620626f756e647300000000000000000000000000604482015260640162000061565b600060208284031215620007e657600080fd5b5051919050565b634e487b7160e01b600052601160045260246000fd5b600063ffffffff8083168181036200081f576200081f620007ed565b6001019392505050565b600063ffffffff83811690831681811015620008495762000849620007ed565b039392505050565b60805160a0516112276200087e6000396000818161080401526108b80152600061039401526112276000f3fe6080604052600436106101145760003560e01c806395bbe4e7116100a0578063e829558811610064578063e82955881461032e578063ec7329591461034e578063ed33639f14610382578063f178e47c146103ce578063fc7e9c6f146103fb57600080fd5b806395bbe4e71461028f578063b214faa5146102af578063ba70f757146102c2578063c2b40ae4146102ec578063cd87a3b41461031957600080fd5b80634ecf518b116100e75780634ecf518b146101d05780636d9833e314610202578063839df945146102225780638ea3099e1461025257806390eeb02b1461027257600080fd5b8063131017081461011957806317cc915c1461013b578063414a37ba1461018057806345af8858146101b0575b600080fd5b34801561012557600080fd5b5061013961013436600461104f565b610420565b005b34801561014757600080fd5b5061016b6101563660046110f5565b60056020526000908152604090205460ff1681565b60405190151581526020015b60405180910390f35b34801561018c57600080fd5b506101a26000805160206111d283398151915281565b604051908152602001610177565b3480156101bc57600080fd5b506101396101cb366004611126565b610528565b3480156101dc57600080fd5b506000546101ed9063ffffffff1681565b60405163ffffffff9091168152602001610177565b34801561020e57600080fd5b5061016b61021d3660046110f5565b610560565b34801561022e57600080fd5b5061016b61023d3660046110f5565b60046020526000908152604090205460ff1681565b34801561025e57600080fd5b506101a261026d36600461114a565b6105de565b34801561027e57600080fd5b506003546101ed9063ffffffff1681565b34801561029b57600080fd5b506101396102aa366004611126565b6107ab565b6101396102bd3660046110f5565b6108b6565b3480156102ce57600080fd5b5060035463ffffffff166000908152600260205260409020546101a2565b3480156102f857600080fd5b506101a26103073660046110f5565b60026020526000908152604090205481565b34801561032557600080fd5b506101ed601e81565b34801561033a57600080fd5b506101a26103493660046110f5565b61098e565b34801561035a57600080fd5b506101a27f2fe54c60d3acabf3343a35b6eba15db4821b340f76e741e2249685ed4899af6c81565b34801561038e57600080fd5b506103b67f000000000000000000000000000000000000000000000000000000000000000081565b6040516001600160a01b039091168152602001610177565b3480156103da57600080fd5b506101a26103e93660046110f5565b60016020526000908152604090205481565b34801561040757600080fd5b506003546101ed90640100000000900463ffffffff1681565b6006546001600160a01b0316331461046f5760405162461bcd60e51b815260206004820152600d60248201526c2737903832b936b4b9b9b4b7b760991b60448201526064015b60405180910390fd5b60008181526005602052604090205460ff16156104be5760405162461bcd60e51b815260206004820152600d60248201526c105b1c9958591e481cdc195b9d609a1b6044820152606401610466565b6104c782610560565b6105095760405162461bcd60e51b8152602060048201526013602482015272125b9d985b1a59081b595c9adb19481c9bdbdd606a1b6044820152606401610466565b6000908152600560205260409020805460ff1916600117905550505050565b6006546001600160a01b03161561053e57600080fd5b600680546001600160a01b0319166001600160a01b0392909216919091179055565b600081810361057157506000919050565b60035463ffffffff16805b63ffffffff811660009081526002602052604090205484036105a2575060019392505050565b8063ffffffff166000036105b45750601e5b806105be8161117f565b9150508163ffffffff168163ffffffff160361057c575060009392505050565b60006000805160206111d2833981519152831061063d5760405162461bcd60e51b815260206004820181905260248201527f5f6c6566742073686f756c6420626520696e7369646520746865206669656c646044820152606401610466565b6000805160206111d283398151915282106106a45760405162461bcd60e51b815260206004820152602160248201527f5f72696768742073686f756c6420626520696e7369646520746865206669656c6044820152601960fa1b6064820152608401610466565b60405163f47d33b560e01b81526004810184905260006024820181905284916001600160a01b0387169063f47d33b5906044016040805180830381865afa1580156106f3573d6000803e3d6000fd5b505050506040513d601f19601f8201168201806040525081019061071791906111ad565b90925090506000805160206111d283398151915284830860405163f47d33b560e01b815260048101829052602481018390529092506001600160a01b0387169063f47d33b5906044016040805180830381865afa15801561077c573d6000803e3d6000fd5b505050506040513d601f19601f820116820180604052508101906107a091906111ad565b509695505050505050565b6006546001600160a01b031633146107f55760405162461bcd60e51b815260206004820152600d60248201526c2737903832b936b4b9b9b4b7b760991b6044820152606401610466565b600080826001600160a01b03167f000000000000000000000000000000000000000000000000000000000000000060405160006040518083038185875af1925050503d8060008114610863576040519150601f19603f3d011682016040523d82523d6000602084013e610868565b606091505b5091509150816108b15760405162461bcd60e51b81526020600482015260146024820152732330b4b632b2103a379039b2b7321022ba3432b960611b6044820152606401610466565b505050565b7f0000000000000000000000000000000000000000000000000000000000000000341461091c5760405162461bcd60e51b815260206004820152601460248201527315dc9bdb99c819195c1bdcda5d08185b5bdd5b9d60621b6044820152606401610466565b60008181526004602052604090205460ff16156109735760405162461bcd60e51b815260206004820152601560248201527412185cda08185b1c9958591e481a5b98db1d591959605a1b6044820152606401610466565b6000908152600460205260409020805460ff19166001179055565b6000816000036109bf57507f2fe54c60d3acabf3343a35b6eba15db4821b340f76e741e2249685ed4899af6c919050565b816001036109ee57507f256a6135777eee2fd26f54b8b7037a25439d5235caee224154186d2b8a52e31d919050565b81600203610a1d57507f1151949895e82ab19924de92c40a3d6f7bcb60d92b00504b8199613683f0c200919050565b81600303610a4c57507f20121ee811489ff8d61f09fb89e313f14959a0f28bb428a20dba6b0b068b3bdb919050565b81600403610a7b57507f0a89ca6ffa14cc462cfedb842c30ed221a50a3d6bf022a6a57dc82ab24c157c9919050565b81600503610aaa57507f24ca05c2b5cd42e890d6be94c68d0689f4f21c9cec9c0f13fe41d566dfb54959919050565b81600603610ad957507f1ccb97c932565a92c60156bdba2d08f3bf1377464e025cee765679e604a7315c919050565b81600703610b0857507f19156fbd7d1a8bf5cba8909367de1b624534ebab4f0f79e003bccdd1b182bdb4919050565b81600803610b3757507f261af8c1f0912e465744641409f622d466c3920ac6e5ff37e36604cb11dfff80919050565b81600903610b6557507e58459724ff6ca5a1652fcbc3e82b93895cf08e975b19beab3f54c217d1c007919050565b81600a03610b9457507f1f04ef20dee48d39984d8eabe768a70eafa6310ad20849d4573c3c40c2ad1e30919050565b81600b03610bc357507f1bea3dec5dab51567ce7e200a30f7ba6d4276aeaa53e2686f962a46c66d511e5919050565b81600c03610bf257507f0ee0f941e2da4b9e31c3ca97a40d8fa9ce68d97c084177071b3cb46cd3372f0f919050565b81600d03610c2157507f1ca9503e8935884501bbaf20be14eb4c46b89772c97b96e3b2ebf3a36a948bbd919050565b81600e03610c5057507f133a80e30697cd55d8f7d4b0965b7be24057ba5dc3da898ee2187232446cb108919050565b81600f03610c7f57507f13e6d8fc88839ed76e182c2a779af5b2c0da9dd18c90427a644f7e148a6253b6919050565b81601003610cae57507f1eb16b057a477f4bc8f572ea6bee39561098f78f15bfb3699dcbb7bd8db61854919050565b81601103610cdd57507f0da2cb16a1ceaabf1c16b838f7a9e3f2a3a3088d9e0a6debaa748114620696ea919050565b81601203610d0c57507f24a3b3d822420b14b5d8cb6c28a574f01e98ea9e940551d2ebd75cee12649f9d919050565b81601303610d3b57507f198622acbd783d1b0d9064105b1fc8e4d8889de95c4c519b3f635809fe6afc05919050565b81601403610d6a57507f29d7ed391256ccc3ea596c86e933b89ff339d25ea8ddced975ae2fe30b5296d4919050565b81601503610d9957507f19be59f2f0413ce78c0c3703a3a5451b1d7f39629fa33abd11548a76065b2967919050565b81601603610dc857507f1ff3f61797e538b70e619310d33f2a063e7eb59104e112e95738da1254dc3453919050565b81601703610df757507f10c16ae9959cf8358980d9dd9616e48228737310a10e2b6b731c1a548f036c48919050565b81601803610e2657507f0ba433a63174a90ac20992e75e3095496812b652685b5e1a2eae0b1bf4e8fcd1919050565b81601903610e5557507f019ddb9df2bc98d987d0dfeca9d2b643deafab8f7036562e627c3667266a044c919050565b81601a03610e8457507f2d3c88b23175c5a5565db928414c66d1912b11acf974b2e644caaac04739ce99919050565b81601b03610eb357507f2eab55f6ae4e66e32c5189eed5c470840863445760f5ed7e7b69b2a62600f354919050565b81601c03610ee157507e2df37a2642621802383cf952bf4dd1f32e05433beeb1fd41031fb7eace979d919050565b81601d03610f1057507f104aeb41435db66c3e62feccc1d6f5d98d0a0ed75d1374db457cf462e3a1f427919050565b81601e03610f3f57507f1f3c6fd858e9a7d4b0d1f38e256a09d81d5a5e3c963987e2d4b814cfab7c6ebb919050565b81601f03610f6e57507f2c7a07d20dff79d01fecedc1134284a8d08436606c93693b67e333f671bf69cc919050565b60405162461bcd60e51b8152602060048201526013602482015272496e646578206f7574206f6620626f756e647360681b6044820152606401610466565b634e487b7160e01b600052604160045260246000fd5b600082601f830112610fd357600080fd5b813567ffffffffffffffff80821115610fee57610fee610fac565b604051601f8301601f19908116603f0116810190828211818310171561101657611016610fac565b8160405283815286602085880101111561102f57600080fd5b836020870160208301376000602085830101528094505050505092915050565b60008060008060006080868803121561106757600080fd5b853567ffffffffffffffff8082111561107f57600080fd5b818801915088601f83011261109357600080fd5b8135818111156110a257600080fd5b8960208285010111156110b457600080fd5b6020928301975095509087013590808211156110cf57600080fd5b506110dc88828901610fc2565b9598949750949560408101359550606001359392505050565b60006020828403121561110757600080fd5b5035919050565b6001600160a01b038116811461112357600080fd5b50565b60006020828403121561113857600080fd5b81356111438161110e565b9392505050565b60008060006060848603121561115f57600080fd5b833561116a8161110e565b95602085013595506040909401359392505050565b600063ffffffff8216806111a357634e487b7160e01b600052601160045260246000fd5b6000190192915050565b600080604083850312156111c057600080fd5b50508051602090910151909290915056fe30644e72e131a029b85045b68181585d2833e84879b9709143e1f593f0000001a26469706673582212202f3caf5e598e56dd72a0fc54f5709231ae41d1e0a5c297a29b556c8d5219a39664736f6c634300080f0033",
    "linkReferences": {}
  },
  "methodIdentifiers": {
    "FIELD_SIZE()": "414a37ba",
    "ROOT_HISTORY_SIZE()": "cd87a3b4",
    "ZERO_VALUE()": "ec732959",
    "commitments(bytes32)": "839df945",
    "currentRootIndex()": "90eeb02b",
    "deposit(bytes32)": "b214faa5",
    "filledSubtrees(uint256)": "f178e47c",
    "getLastRoot()": "ba70f757",
    "hashLeftRight(address,bytes32,bytes32)": "8ea3099e",
    "hasher()": "ed33639f",
    "isKnownRoot(bytes32)": "6d9833e3",
    "levels()": "4ecf518b",
    "nextIndex()": "fc7e9c6f",
    "nullifierHashes(bytes32)": "17cc915c",
    "rewardRelayer(address)": "95bbe4e7",
    "roots(uint256)": "c2b40ae4",
    "setLensInteractor(address)": "45af8858",
    "verify(bytes,string,bytes32,bytes32)": "13101708",
    "zeros(uint256)": "e8295588"
  },
  "id": 8
}