{
  "abi": [
    {
      "inputs": [
        {
          "internalType": "uint256",
          "name": "_depostiAmount",
          "type": "uint256"
        }
      ],
      "stateMutability": "nonpayable",
      "type": "constructor"
    },
    {
      "inputs": [
        {
          "internalType": "bytes32",
          "name": "hash",
          "type": "bytes32"
        }
      ],
      "name": "deposit",
      "outputs": [],
      "stateMutability": "payable",
      "type": "function"
    },
    {
      "inputs": [
        {
          "internalType": "string",
          "name": "word",
          "type": "string"
        }
      ],
      "name": "verifyAndRemoveWord",
      "outputs": [],
      "stateMutability": "nonpayable",
      "type": "function"
    }
  ],
  "bytecode": {
    "object": "0x60a060405234801561001057600080fd5b5060405161039438038061039483398101604081905261002f91610037565b608052610050565b60006020828403121561004957600080fd5b5051919050565b60805161032961006b600039600061010201526103296000f3fe6080604052600436106100295760003560e01c80635436d4e81461002e578063b214faa514610050575b600080fd5b34801561003a57600080fd5b5061004e6100493660046101ee565b610063565b005b61004e61005e36600461029f565b610100565b60008160405160200161007691906102b8565b60408051601f19818403018152918152815160209283012060008181529283905291205490915060ff166100e75760405162461bcd60e51b815260206004820152601360248201527215dbdc99081a185cda081b9bdd08199bdd5b99606a1b60448201526064015b60405180910390fd5b6000908152602081905260409020805460ff1916905550565b7f000000000000000000000000000000000000000000000000000000000000000034146101665760405162461bcd60e51b815260206004820152601460248201527315dc9bdb99c819195c1bdcda5d08185b5bdd5b9d60621b60448201526064016100de565b60008181526020819052604090205460ff16156101bd5760405162461bcd60e51b815260206004820152601560248201527412185cda08185b1c9958591e481a5b98db1d591959605a1b60448201526064016100de565b6000908152602081905260409020805460ff19166001179055565b634e487b7160e01b600052604160045260246000fd5b60006020828403121561020057600080fd5b813567ffffffffffffffff8082111561021857600080fd5b818401915084601f83011261022c57600080fd5b81358181111561023e5761023e6101d8565b604051601f8201601f19908116603f01168101908382118183101715610266576102666101d8565b8160405282815287602084870101111561027f57600080fd5b826020860160208301376000928101602001929092525095945050505050565b6000602082840312156102b157600080fd5b5035919050565b6000825160005b818110156102d957602081860181015185830152016102bf565b818111156102e8576000828501525b50919091019291505056fea26469706673582212205b4b65b6c351fe23085fae3dd460e90808bf6ac7a60958f99cd7de0e353965e664736f6c634300080f0033",
    "linkReferences": {}
  },
  "methodIdentifiers": {
    "deposit(bytes32)": "b214faa5",
    "verifyAndRemoveWord(string)": "5436d4e8"
  },
  "id": 0
}